:100000000C942A000C9447000C9447000C94470071
:100010000C941A190C94E7180C94B4180C948118C9
:100020000C944E180C941B180C94E8170C94B517EC
:100030000C9447000C9447000C9447000C94470024
:100040000C941A1F0C9447000C9447000C94470022
:100050000C94470011241FBECFE5D8E0DEBFCDBF12
:1000600011E0A0E6B0E0E4EAF0E602C005900D92EF
:10007000A238B107D9F711E0A2E8B1E001C01D92A2
:10008000A13CB107E1F70E9475070C9450300C9425
:100090000000EF92FF920F931F937B018C0120E0F1
:1000A00030E040E05FE40E94F50388238CF0C80153
:1000B000B70120E030E040E05FE40E94C1010E940F
:1000C000B3049B01AC01205030404040504806C072
:1000D000C801B7010E94B3049B01AC01B901CA0178
:1000E0001F910F91FF90EF900895A0E0B0E0EBE733
:1000F000F0E00C941930DC012B01FA019C91923054
:1001000008F439C1EB018881823008F433C194309E
:1001100069F4843009F02FC111969C91119789815F
:10012000981709F428C1A6E6B0E025C1843009F487
:1001300021C18230A9F4923009F01DC19A01AD01AC
:1001400088E0EA010990AE01E90109929E0181501F
:10015000C1F7E201898111969C918923818308C1AD
:10016000923009F407C112962D903C901397EB0141
:100170008A819B811496AD90BD90CD90DC901797AD
:10018000EC80FD800E811F819101281B390BB90184
:1001900037FF04C066277727621B730B6032710537
:1001A0000CF061C0121613066CF537014801062EDB
:1001B00004C096948794779467940A94D2F721E0C8
:1001C00030E040E050E004C0220F331F441F551FB1
:1001D0006A95D2F721503040404050402E213F21B7
:1001E00040235123211531054105510521F021E01E
:1001F00030E040E050E079018A01E628F72808293C
:1002000019293CC0232BD1F1260E371E350146019A
:10021000062E04C096948794779467940A94D2F734
:1002200021E030E040E050E004C0220F331F441FC3
:10023000551F6A95D2F721503040404050402A2146
:100240003B214C215D21211531054105510521F04E
:1002500021E030E040E050E059016A01A628B728CB
:10026000C828D9280BC0821593052CF01C01AA249C
:10027000BB24650103C0EE24FF24870111969C91E5
:10028000D20111968C91981709F445C0992339F041
:10029000A80197012A193B094C095D0906C0A6016E
:1002A00095012E193F09400B510B57FD08C01182D3
:1002B0003382228224833583468357831DC081E0A5
:1002C00081833382228288279927DC01821B930B4A
:1002D000A40BB50B84839583A683B7830DC0220F2F
:1002E000331F441F551F24833583468357838281E0
:1002F000938101979383828324813581468157813D
:10030000DA01C9010197A109B1098F5F9F4FAF4F72
:10031000BF4328F30BC0918333822282EA0CFB1C7B
:100320000C1D1D1DE482F5820683178383E0808304
:10033000248135814681578157FF1AC0C901AA27F8
:1003400097FDA095BA2F81709070A070B0705695EF
:10035000479537952795822B932BA42BB52B848318
:100360009583A683B7838281938101969383828349
:10037000DF0101C0D201CD01CDB7DEB7E2E10C94BF
:100380003530A0E2B0E0E7ECF1E00C942530698371
:100390007A838B839C832D833E834F835887E9E048
:1003A000EE2EF12CEC0EFD1ECE010196B7010E943F
:1003B000A4068E010F5E1F4FCE010596B8010E9464
:1003C000A4068A8991E089278A8BC701B801AE010A
:1003D000475E5F4F0E9475000E94CF05A096E6E041
:1003E0000C944130A0E2B0E0E8EFF1E00C9425304D
:1003F00069837A838B839C832D833E834F835887C5
:10040000F9E0EF2EF12CEC0EFD1ECE010196B701A6
:100410000E94A4068E010F5E1F4FCE010596B80103
:100420000E94A406C701B801AE01475E5F4F0E945B
:1004300075000E94CF05A096E6E00C944130A0E242
:10044000B0E0E5E2F2E00C94193069837A838B83A3
:100450009C832D833E834F835887CE010196BE0136
:10046000675F7F4F0E94A406CE010596BE016F5EB6
:100470007F4F0E94A4069985923088F08989823046
:10048000C8F0943019F4823051F404C0843029F457
:10049000923081F486E690E0C6C0923049F420E0C4
:1004A0009A858A89981321E02A87CE010996BBC0D4
:1004B000823049F420E09A858A89981321E02A8BBA
:1004C000CE014196B0C02D843E844F8458886D88FB
:1004D0007E888F88988CEE24FF248701AA24BB2471
:1004E000650140E050E060E070E0E0E0F0E0C10174
:1004F00081709070892BE9F0E60CF71C081D191D1E
:100500009A01AB012A0D3B1D4C1D5D1D80E090E062
:10051000A0E0B0E0E614F7040805190520F481E036
:1005200090E0A0E0B0E0BA01A901480F591F6A1F8E
:100530007B1FAA0CBB1CCC1CDD1C97FE08C081E0F5
:1005400090E0A0E0B0E0A82AB92ACA2ADB2A3196B6
:10055000E032F10549F0660C771C881C991C569412
:10056000479437942794C3CFFA85EA892B893C892D
:100570008B859C85280F391F2E5F3F4F17C0CA01FE
:1005800081709070892B61F016950795F794E79428
:1005900080E090E0A0E0B0E8E82AF92A0A2B1B2BC3
:1005A00076956795579547952F5F3F4F77FDE7CF36
:1005B0000CC0440F551F661F771F17FD4160EE0CDE
:1005C000FF1C001F111F21503040403090E05907A0
:1005D00090E0690790E4790760F32B8F3C8FDB0193
:1005E000CA018F779070A070B07080349105A1051A
:1005F000B10561F447FD0AC0E114F10401051105DC
:1006000029F0405C5F4F6F4F7F4F40781A8EFE1786
:1006100011F081E08A8F4D8F5E8F6F8F78A383E01A
:10062000898FCE0149960E94CF05A096E2E10C94F5
:100630003530A8E1B0E0EFE1F3E00C9421306983BC
:100640007A838B839C832D833E834F835887B9E0C5
:10065000EB2EF12CEC0EFD1ECE010196B7010E948F
:10066000A4068E010F5E1F4FCE010596B8010E94B1
:10067000A4062985223008F47EC03989323010F46E
:10068000B8017CC08A859A8989278A87243011F02D
:10069000223031F4231709F06EC066E670E06EC0B8
:1006A000343039F41D861E861F86188A1C861B86E8
:1006B00004C0323021F484E08987B7015FC02B8504
:1006C0003C858B899C89281B390B3C872B87ED84C3
:1006D000FE840F851889AD88BE88CF88D88CEA142F
:1006E000FB040C051D0540F4EE0CFF1C001F111F40
:1006F000215030403C872B8720E030E040E050E044
:1007000080E090E0A0E0B0E460E070E0EA14FB0478
:100710000C051D0540F0282B392B4A2B5B2BEA18C2
:10072000FB080C091D09B695A79597958795EE0CC2
:10073000FF1C001F111F6F5F7F4F6F31710531F775
:10074000DA01C9018F779070A070B0708034910584
:10075000A105B10561F427FD0AC0E114F10401050A
:10076000110529F0205C3F4F4F4F5F4F20782D87B8
:100770003E874F87588BBE01675F7F4FCB010E943A
:10078000CF056896EAE00C943D30A8E1B0E0EBECD0
:10079000F3E00C94253069837A838B839C832D83CB
:1007A0003E834F83588789E0E82EF12CEC0EFD1E26
:1007B000CE010196B7010E94A4068E010F5E1F4F65
:1007C000CE010596B8010E94A4068985823040F0CA
:1007D0008989823028F0C701B8010E941C0701C036
:1007E0008FEF6896E6E00C944130A8E1B0E0EBEFC3
:1007F000F3E00C94253069837A838B839C832D836B
:100800003E834F83588789E0E82EF12CEC0EFD1EC5
:10081000CE010196B7010E94A4068E010F5E1F4F04
:10082000CE010596B8010E94A4068985823040F069
:100830008989823028F0C701B8010E941C0701C0D5
:100840008FEF6896E6E00C944130A8E1B0E0EBE26F
:10085000F4E00C94253069837A838B839C832D8309
:100860003E834F83588789E0E82EF12CEC0EFD1E65
:10087000CE010196B7010E94A4068E010F5E1F4FA4
:10088000CE010596B8010E94A4068985823040F009
:100890008989823028F0C701B8010E941C0701C075
:1008A00081E06896E6E00C944130A8E0B0E0EBE52A
:1008B000F4E00C9422309B01AC0183E08983DA01DF
:1008C000C9018827B7FD83959927AA27BB27B82E8A
:1008D000211531054105510519F482E089833AC09B
:1008E0008823A9F0203080E0380780E0480780E8BE
:1008F000580729F460E070E080E09FEC30C0EE24FF
:10090000FF248701E21AF30A040B150B02C07901D8
:100910008A018EE1C82ED12CDC82CB82ED82FE8250
:100920000F831887C801B7010E9480050197181628
:10093000190684F4082E04C0EE0CFF1C001F111FC2
:100940000A94D2F7ED82FE820F831887C81AD90A5B
:10095000DC82CB82BA82CE0101960E94CF05289616
:10096000E9E00C943E30ACE0B0E0E9EBF4E00C944C
:10097000293069837A838B839C83CE010196BE01E3
:100980006B5F7F4F0E94A4068D81823061F18230BF
:1009900050F1843021F48E81882351F12EC02F81B3
:1009A000388537FD20C06E812F3131051CF066235C
:1009B000F9F023C08EE190E0821B930B29853A85E4
:1009C0004B855C8504C056954795379527958A9544
:1009D000D2F76623B1F050954095309521953F4F61
:1009E0004F4F5F4F0EC020E030E040E050E009C0C4
:1009F0002FEF3FEF4FEF5FE704C020E030E040E033
:100A000050E8B901CA012C96E2E00C944530A8E008
:100A1000B0E0EDE0F5E00C9421307B018C01611534
:100A200071058105910519F482E0898360C083E036
:100A300089838EE1C82ED12CDC82CB82ED82FE82AE
:100A40000F831887C801B7010E948005FC01319708
:100A5000F7FF3BC0222733272E1B3F0B57016801AE
:100A6000022E04C0D694C794B794A7940A94D2F7E0
:100A700040E050E060E070E081E090E0A0E0B0E0B5
:100A800004C0880F991FAA1FBB1F2A95D2F7019790
:100A9000A109B1098E219F21A023B1230097A105AF
:100AA000B10521F041E050E060E070E04A295B29A7
:100AB0006C297D294D835E836F8378878EE190E07A
:100AC0008E1B9F0B9C838B8312C0309781F00E2E60
:100AD00004C0EE0CFF1C001F111F0A94D2F7ED8218
:100AE000FE820F831887CE1ADF0ADC82CB821A823D
:100AF000CE0101960E94CF052896EAE00C943D3085
:100B0000EF92FF920F931F937B018C0180E0E81618
:100B100080E0F80681E0080780E0180788F48FEF8E
:100B2000E816F1040105110531F028F088E090E0A5
:100B3000A0E0B0E017C080E090E0A0E0B0E012C01C
:100B400080E0E81680E0F80680E0080781E01807FA
:100B500028F088E190E0A0E0B0E004C080E190E0FF
:100B6000A0E0B0E020E230E040E050E0281B390B8C
:100B70004A0B5B0B04C016950795F794E7948A958A
:100B8000D2F7F701E259FF4F8081281B3109410953
:100B90005109C9011F910F91FF90EF900895DF92C5
:100BA000EF92FF920F931F93FC01E480F580068182
:100BB0001781D1808081823048F480E090E0A0E10C
:100BC000B0E0E82AF92A0A2B1B2BA5C0843009F4CF
:100BD0009FC0823021F4EE24FF24870105C0E11478
:100BE000F1040105110519F4E0E0F0E096C062811E
:100BF00073819FEF623879070CF05BC022E83FEF0A
:100C0000261B370B2A3131052CF020E030E040E084
:100C100050E02AC0B801A701022E04C0769567955E
:100C2000579547950A94D2F781E090E0A0E0B0E0B4
:100C300004C0880F991FAA1FBB1F2A95D2F70197DE
:100C4000A109B1098E219F21A023B1230097A105FD
:100C5000B10521F081E090E0A0E0B0E09A01AB01A5
:100C6000282B392B4A2B5B2BDA01C9018F77907027
:100C7000A070B07080349105A105B10539F427FF4B
:100C800009C0205C3F4F4F4F5F4F04C0215C3F4F76
:100C90004F4F5F4FE0E0F0E02030A0E03A07A0E0E7
:100CA0004A07A0E45A0710F0E1E0F0E079018A0178
:100CB00027C06038710564F5FB01E158FF4FD8018A
:100CC000C7018F779070A070B07080349105A10536
:100CD000B10539F4E7FE0DC080E490E0A0E0B0E09B
:100CE00004C08FE390E0A0E0B0E0E80EF91E0A1F18
:100CF0001B1F17FF05C016950795F794E7943196CB
:100D000087E016950795F794E7948A95D1F705C083
:100D1000EE24FF248701EFEFF0E06E2F6795662742
:100D20006795902F9F77D794DD24D7948E2F869543
:100D3000492F462B582F5D29B701CA011F910F91EA
:100D4000FF90EF90DF900895FC01DB01408151811D
:100D50002281622F6F7770E0221F2227221F93814A
:100D6000892F880F822B282F30E0991F9927991FF0
:100D700011969C93119721153105A9F5411551053F
:100D80006105710511F482E037C082E89FEF139688
:100D90009C938E9312979A01AB0167E0220F331F49
:100DA000441F551F6A95D1F783E08C930DC0220F25
:100DB000331F441F551F12968D919C9113970197D5
:100DC00013969C938E931297203080E0380780E032
:100DD000480780E4580758F314962D933D934D939C
:100DE0005C93179708952F3F310579F4411551050C
:100DF0006105710519F484E08C93089564FF03C0C4
:100E000081E08C9312C01C9210C02F573040139673
:100E10003C932E93129783E08C9387E0440F551FE9
:100E2000661F771F8A95D1F7706414964D935D9372
:100E30006D937C93179708951F93DC01FB019C91A0
:100E4000923008F447C08081823008F443C0943067
:100E500051F411961C91843099F58181682F70E0CE
:100E6000611B71093FC0843021F0923031F482302F
:100E7000B9F18181882389F12DC011961C911197B8
:100E80008230F1F081811817D9F412962D913C919E
:100E90001397828193818217930794F0281739075B
:100EA000BCF014968D919D910D90BC91A02D248144
:100EB000358146815781281739074A075B0718F49F
:100EC000112341F00AC082179307A407B50740F425
:100ED000112319F061E070E005C06FEF7FEF02C0F1
:100EE00060E070E0CB011F910895CF92DF92EF9206
:100EF000FF920F931F93DF93CF93CDB7DEB7C85404
:100F0000D0400FB6F894DEBF0FBECDBF0E949A1935
:100F10000E94BF190E94A11D0E94452382E089837F
:100F20001B8282E08A83CE0101960E94AB0E8AEF7B
:100F30000E9495162BEC38E081E0B9010E947016F2
:100F400081E00E941F1583E08A8787E08B871D86DA
:100F50001C861E86188A1F868EE0FE017196DF01B0
:100F6000982F1D929A95E9F780E190E0A0E0B0E01B
:100F7000898B9A8BAB8BBC8B86E08D8F8EE0FE01CC
:100F80007F96DF01982F1D929A95E9F782E190E014
:100F9000A0E0B0E08F8F98A3A9A3BAA382E08BA7AB
:100FA0008EE0FE01BD96DF01982F1D929A95E9F71C
:100FB00084E190E0A0E0B0E08DA79EA7AFA7B8AB1A
:100FC00081E089AF8EE0FE01FB96DF01982F1D9234
:100FD0009A95E9F787E190E0A0E0B0E08BAF9CAF95
:100FE000ADAFBEAFFE01E95BFF4F81E08083809132
:100FF0006E01882309F040C09E012C5F3F4F80E0C6
:10100000B9010E945E269E012A5F3F4F81E0B9012F
:101010000E945E269E01285F3F4F82E0B9010E9438
:101020005E268C819D818D8B8C819D81892F992756
:101030008E8B8E819F818F8B8E819F81892F9927A7
:10104000888F88859985898F88859985892F9927A3
:101050008A8FC988DA88EB88FC880D891E892F89D8
:10106000388D498D5A8D6B8D7C8D8D8D9E8D0E9416
:10107000642381E080936E0180917001882349F59B
:1010800081E00E94A615CE010A969E01245F3F4F83
:10109000B9010E94DA1F81E00E941F158C859D8591
:1010A0008BA38C859D85892F99278CA3CF8CD8A065
:1010B000E9A0FAA00BA11CA12DA13EA14FA158A50A
:1010C00069A57AA58BA59CA50E94642381E08093E5
:1010D000700180916F018823E1F49E01225F3F4FF0
:1010E00083E0B9010E949F258E8589ABCDA4DEA443
:1010F000EFA4F8A809A91AA92BA93CA94DA95EA992
:101100006FA978AD89AD9AAD0E94642381E0809388
:101110006F0180917101882309F069CF9E01215FE1
:101120003F4F84E0B9010E94D21D8F859889969522
:101130008795969587958FAFCBACDCACEDACFEACCC
:101140000FADFE01E05CFF4F1081FE01EF5BFF4F32
:101150002081FE01EE5BFF4F3081FE01ED5BFF4F12
:101160004081FE01EC5BFF4F5081FE01EB5BFF4FC6
:101170006081FE01EA5BFF4F7081FE01E95BFF4F7A
:101180008081FE01E85BFF4F90810E94642381E033
:10119000809371012CCFDF93CF93CDB7DEB78091D1
:1011A0008201909183010196909383018093820143
:1011B000809182019091830120E530E0B9010E9485
:1011C000C82F009711F410926E01809182019091C6
:1011D000830128EE33E0B9010E94C82F009711F473
:1011E00010927001809182019091830127E0803DEF
:1011F000920741F41092710110926F0110928301D5
:1012000010928201CF91DF910895EF92FF920F9398
:101210001F93DF93CF93CDB7DEB72D970FB6F8941A
:10122000DEBF0FBECDBF9B878A877D876C871A8202
:101230001B821C821D82198282E08E831F82188687
:101240001986CE0106960E94A70F85E00E941F1501
:1012500080E00E943F1721EE3AE085E0B9010E944C
:10126000701682E00E941F1520E23BE082E0B90187
:101270000E94701680918401909185010097D1F3AE
:1012800080918601909187010097A1F38091880158
:1012900090918901009771F380918B01882309F067
:1012A00048C02091860130918701809184019091FE
:1012B0008501A901481B590BCA01CC01A0E0B0E08F
:1012C0008A839B83AC83BD832091880130918901FF
:1012D0008091860190918701A901481B590BCA0191
:1012E000CC01A0E0B0E0BC01CD010E9407057B016C
:1012F0008C016A817B818C819D810E9407059B0105
:10130000AC01C801B7010E941903DC01CB01BC018B
:10131000CD0120E030E048EC52E40E941F02DC01E5
:10132000CB01BC01CD010E944900DC01CB018983C6
:1013300027C120918601309187018091840190918D
:1013400085012817390708F120918601309187011E
:101350008091840190918501A901481B590BCA0114
:101360009C0140E050E080918B01882F90E0A0E04C
:10137000B0E0DC0199278827820F931FA41FB51FB7
:101380008A839B83AC83BD832BC0209186013091DF
:10139000870180918401909185012817390700F514
:1013A000209184013091850180918601909187017F
:1013B000A901481B590BCA019C0140E050E08091F3
:1013C0008B01882F90E0A0E0B0E0DC01992788270E
:1013D000820F931FA41FB51F8A839B83AC83BD8399
:1013E00080918C018823A9F5209188013091890191
:1013F0008091860190918701A901481B590BCA0170
:10140000CC01A0E0B0E0BC01CD010E9407057B014A
:101410008C016A817B818C819D810E9407059B01E3
:10142000AC01C801B7010E941903DC01CB01BC016A
:10143000CD0120E030E048EC52E40E941F02DC01C4
:10144000CB01BC01CD010E944900DC01CB018983A5
:1014500097C02091880130918901809186019091F7
:1014600087012817390708F440C0809188019091BE
:101470008901282F8091860190918701281B8091F6
:101480008C01882F90E0A0E0B0E0DC01992788274C
:10149000820F89838981882F90E0A0E0B0E0BC01B1
:1014A000CD010E9407057B018C016A817B818C81C3
:1014B0009D810E9407059B01AC01C801B7010E94F4
:1014C0001903DC01CB01BC01CD0120E030E048EC88
:1014D00052E40E941F02DC01CB01BC01CD010E943D
:1014E0004900DC01CB0189834BC0209188013091F8
:1014F000890180918601909187012817390708F0AA
:101500003FC08091860190918701282F80918801AA
:1015100090918901281B80918C01882F90E0A0E098
:10152000B0E0DC0199278827820F89838981882F81
:1015300090E0A0E0B0E0BC01CD010E9407057B0176
:101540008C016A817B818C819D810E9407059B01B2
:10155000AC01C801B7010E941903DC01CB01BC0139
:10156000CD0120E030E048EC52E40E941F02DC0193
:10157000CB01BC01CD010E944900DC01CB01898374
:10158000EC85FD858A819B81AC81BD8180839183BF
:10159000A283B383EA85FB858981808382E00E94F0
:1015A000A61581E00E942D162D960FB6F894DEBF89
:1015B0000FBECDBFCF91DF911F910F91FF90EF90A4
:1015C0000895DF93CF93CDB7DEB780918D018F5F04
:1015D00080938D0180918D01813039F40E94341700
:1015E000909385018093840128C080918D01823081
:1015F00071F40E943417909387018093860181E0F3
:101600000E943F1780918A0180938B0116C08091C0
:101610008D01833091F40E94341790938901809357
:10162000880185E00E94A61590918A0180918B0126
:10163000292F281B822F80938C01CF91DF91089551
:10164000DF93CF93CDB7DEB780918A018F5F809310
:101650008A01CF91DF9108958F929F92AF92BF92AE
:10166000CF92DF92EF92FF920F931F93DF93CF936E
:1016700000D00F92CDB7DEB79B838A838A819B818E
:10168000AC0140585F4F8A819B819C012C573F4F92
:10169000CA01B9010E94792B198227C08A819B81D6
:1016A0008C0100581F4F8A819B810F2EF4E8AF2ECA
:1016B000BB24F02DA80EB91E8A809B808981882FBB
:1016C00090E0A0E0B0E0BC01CD010E9407056B01F5
:1016D0007C01C801B50120E130E040E050E0840128
:1016E0000E943C2C89818F5F898389818031B0F28F
:1016F0000F900F900F90CF91DF911F910F91FF905E
:10170000EF90DF90CF90BF90AF909F908F90089513
:10171000CF92DF92EF92FF920F931F93DF93CF93BD
:10172000CDB7DEB72C970FB6F894DEBF0FBECDBF96
:1017300098878F8349875A876B877C878F819885A5
:10174000AC0140585F4F8F8198859C012C573F4FCB
:10175000EF81F885C984DA84EB84FC84CA01B9017D
:1017600020E130E040E050E08F010E94E12C8F81C9
:101770009885FC01EC57FF4F80819181A281B38154
:1017800089831A8241C08A81882F90E02F81388511
:101790004096880F991F880F991FF901E80FF91FCC
:1017A000E080F180028113818981882F90E02F8170
:1017B0003885880F991F880F991FF901E80FF91FC5
:1017C0002081318142815381C801B7010E941F02EB
:1017D000DC01CB019C01AD016B817C818D819E81FF
:1017E0000E94F201DC01CB018B839C83AD83BE831D
:1017F0008981882321F089818150898302C08FE00B
:1018000089838A818F5F8A838A81803108F4BBCF84
:101810008F819885FC01E857FF4F8B819C81AD81BA
:10182000BE8180839183A283B3838B819C81AD81B0
:10183000BE81BC01CD012C960FB6F894DEBF0FBE61
:10184000CDBFCF91DF911F910F91FF90EF90DF906F
:10185000CF900895EF92FF920F931F93DF93CF9352
:10186000CDB7DEB72D970FB6F894DEBF0FBECDBF54
:101870006D837E838F83988729873A874B875C8720
:101880000D878D85882F90E0A0E0B0E02D813E810E
:101890004F815885BC01CD010E94A92FDC01CB01ED
:1018A0002AE030E040E050E0BC01CD010E94DC2F96
:1018B000DA01C9017C018D018D85282F30E040E0DF
:1018C00050E08AE090E0A0E0B0E0821B930BA40B14
:1018D000B50B29853A854B855C85BC01CD010E94FD
:1018E000A92FDC01CB012AE030E040E050E0BC0150
:1018F000CD010E94DC2FDA01C9018E0D9F1DA01FB2
:10190000B11F89839A83AB83BC8389819A81AB8120
:10191000BC81BC01CD012D960FB6F894DEBF0FBE81
:10192000CDBFCF91DF911F910F91FF90EF90089560
:10193000EF92FF920F931F93DF93CF93CDB7DEB754
:1019400061970FB6F894DEBF0FBECDBF6E877F875D
:10195000888B998B80E090E0A0E0B0E089879A873F
:10196000AB87BC8781E090E0A0E0B0E08D839E83F0
:10197000AF83B88710C06E857F85888999892BEDE4
:101980003FE049EC50E40E94F201DC01CB018E877C
:101990009F87A88BB98B6E857F85888999892BED68
:1019A0003FE049EC50EC0E942504882324F310C04A
:1019B0006E857F85888999892BED3FE049EC50E45D
:1019C0000E94C101DC01CB018E879F87A88BB98B58
:1019D0006E857F85888999892BED3FE049EC50E43D
:1019E0000E94F503882324F78E859F85A889B989ED
:1019F00089839A83AB83BC8381E08D8770C06D81BE
:101A00007E818F8198850E945504DC01CB01BC0149
:101A1000CD0129813A814B815C810E941F02DC014A
:101A2000CB019C01AD0169857A858B859C850E94DF
:101A3000F201DC01CB0189879A87AB87BC876E8571
:101A40007F85888999892E853F85488959890E9493
:101A50001F02DC01CB017C018D018D85882F90E078
:101A60009C012F5F3F4F8D85882F90E00296AC013F
:101A7000249FC001259F900D349F900D1124AA270B
:101A800097FDA095BA2FBC01CD010E9455049B0182
:101A9000AC01C801B7010E941903DC01CB019C0114
:101AA000AD0169817A818B819C810E941F02DC01DA
:101AB000CB0189839A83AB83BC838D819E81AF8167
:101AC000B885B095A095909581959F4FAF4FBF4F2A
:101AD0008D839E83AF83B8878D858E5F8D878D853F
:101AE0008B3008F48CCF89859A85AB85BC85BC0189
:101AF000CD0161960FB6F894DEBF0FBECDBFCF917A
:101B0000DF911F910F91FF90EF9008958F929F9218
:101B1000AF92BF92CF92DF92EF92FF920F931F93FB
:101B2000DF93CF93CDB7DEB760970FB6F894DEBFE3
:101B30000FBECDBF9C838B834D835E836F8378877D
:101B400009871A872B873C87CD86DE86EF86F88A41
:101B500019828B819C81009709F4E7C01A82D5C055
:101B60008A81E82EFF2400E010E08D819E81AF8104
:101B7000B8850197A109B10922E030E040E050E0CA
:101B8000BC01CD010E94FE2FDA01C901E816F90659
:101B90000A071B0739F58A81882F90E09C01220FE4
:101BA000331F220F331F8B819C818C01020F131F67
:101BB00029853A854B855C85CA01B9010E94F201ED
:101BC000DC01CB01BC01CD012D853E854F855889B7
:101BD0000E941903DC01CB01F80180839183A28369
:101BE000B38390C08A81882F90E09C01220F331F1D
:101BF000220F331F8B819C814C01820E931E6985BD
:101C00007A858B859C852BED3FE049EC50E40E9462
:101C10001F02DC01CB015C016D018A81E82EFF24EB
:101C200000E010E08D819E81AF81B8850197A10908
:101C3000B10922E030E040E050E0BC01CD010E945B
:101C4000FE2FDA01C901A8019701281B390B4A0BA5
:101C50005B0BDA01C901BC01CD010E9455049B0157
:101C6000AC01C601B5010E941F02DC01CB01BC0121
:101C7000CD012D853E854F8558890E941903DC01D1
:101C8000CB01BC01CD010E94980C5B016C018A81E3
:101C9000E82EFF2400E010E08D819E81AF81B885A1
:101CA0000197A109B10922E030E040E050E0BC0119
:101CB000CD010E94FE2FDA01C901A8019701281B5E
:101CC000390B4A0B5B0BDA01C901BC01CD010E9443
:101CD0005504DC01CB01BC01CD012BED3FE049E413
:101CE00050E40E941F02DC01CB019C01AD01C60142
:101CF000B5010E941903DC01CB01F40180839183BB
:101D0000A283B3838A818F5F8A838A81282F30E000
:101D100040E050E08D819E81AF81B885281739075A
:101D20004A075B070CF41CCF02C082E089838981DB
:101D300060960FB6F894DEBF0FBECDBFCF91DF9196
:101D40001F910F91FF90EF90DF90CF90BF90AF90D9
:101D50009F908F900895DF93CF93CDB7DEB72797ED
:101D60000FB6F894DEBF0FBECDBF9B838A83198266
:101D70008A819B81009709F4DEC080918E018823BF
:101D800009F0D6C081E080938E01EA81FB818181D8
:101D9000282F30E03F832E838E819F8181309105F3
:101DA00021F12E813F81223031052CF48E819F81DB
:101DB000009761F046C02E813F812230310521F12C
:101DC0008E819F818330910571F13BC0A3E5B0E026
:101DD000E3E5F0E080818F7B8C93A3E5B0E0E3E561
:101DE000F0E08081877F8C932CC0A3E5B0E0E3E531
:101DF000F0E0808180648C93A3E5B0E0E3E5F0E05F
:101E00008081877F8C931DC0A3E5B0E0E3E5F0E01F
:101E100080818F7B8C93A3E5B0E0E3E5F0E08081E7
:101E200088608C930EC0A3E5B0E0E3E5F0E080812C
:101E300080648C93A3E5B0E0E3E5F0E08081886006
:101E40008C93A3E5B0E0E3E5F0E080818F7C8C9398
:101E5000EA81FB818181882329F0EA81FB818181EC
:101E60008230E1F4EA81FB8182818430A0F4A3E531
:101E7000B0E0E3E5F0E08081282FEA81FB818281F8
:101E8000882F90E082959295907F9827807F982761
:101E9000822B8C933BC081E0898338C0EA81FB812F
:101EA0008181833029F0EA81FB818181813071F564
:101EB000EA81FB818281282F30E03D832C838C8155
:101EC0009D818430910581F02C813D812530310543
:101ED00099F08C819D810097B9F4E3E5F0E0A3E5EA
:101EE000B0E08C91808312C0A3E5B0E0E3E5F0E0C0
:101EF000808180628C930AC0A3E5B0E0E3E5F0E066
:101F0000808180638C9302C081E08983A3E5B0E087
:101F1000E3E5F0E08081887F8C93A3E5B0E0E3E522
:101F2000F0E09081EA81FB818081892B8C9305C050
:101F300084E0898302C082E08983898127960FB675
:101F4000F894DEBF0FBECDBFCF91DF910895DF9330
:101F5000CF93CDB7DEB729970FB6F894DEBF0FBE8B
:101F6000CDBF9B838A8319828A819B81009709F464
:101F700071C180918F01882309F069C181E080934C
:101F80008F01AFE4B0E0EFE4F0E080818C7F8C93D0
:101F9000AEE4B0E0EEE4F0E08081877E8C93AFE4C5
:101FA000B0E0EFE4F0E08081982FEA81FB8181814D
:101FB0008370892B8C93AEE4B0E0EEE4F0E0808196
:101FC000282FEA81FB81818186958695882F90E074
:101FD00083709070880F991F880F991F880F991F21
:101FE000822B8C93EA81FB818181282F30E0398715
:101FF0002887888599858C309105B4F428853985A2
:10200000253031050CF070C08885998584309105A4
:10201000C4F428853985213031050CF065C08885E8
:102020009985009771F0FFC0288539852C303105DE
:1020300041F0888599850E978230910508F0F3C0AC
:1020400053C0EA81FB8182818430F0F4AFE4B0E0D8
:10205000EFE4F0E080818F738C93AFE4B0E0EFE4C5
:10206000F0E08081282FEA81FB818281882F90E037
:102070000024969587950794969587950794982FB1
:10208000802D822B8C9307C0EA81FB818281863070
:1020900011F081E08983EA81FB8183818430D8F467
:1020A000AFE4B0E0EFE4F0E080818F7C8C93AFE4AC
:1020B000B0E0EFE4F0E08081282FEA81FB818381AA
:1020C000882F90E082959295907F9827807F98271F
:1020D000822B8C93AAC0EA81FB818381863009F42C
:1020E000A4C081E08983A1C0EA81FB818281282F7D
:1020F00030E03F832E838E819F818430910519F1DA
:102100002E813F81253031052CF48E819F810097EF
:1021100061F037C02E813F812530310519F18E8164
:102120009F818630910579F12CC0AFE4B0E0EFE4F7
:10213000F0E080818F738C93AFE4B0E0EFE4F0E0E7
:1021400080818C9320C0AFE4B0E0EFE4F0E08081C8
:102150008F738C93AFE4B0E0EFE4F0E080818068AF
:102160008C9311C0AFE4B0E0EFE4F0E080818F73B6
:102170008C93AFE4B0E0EFE4F0E08081806C8C936E
:1021800002C081E08983EA81FB818381282F30E0CE
:102190003D832C838C819D818430910519F12C81A4
:1021A0003D81253031052CF48C819D81009761F0B3
:1021B00037C02C813D812530310519F18C819D81FD
:1021C0008630910591F12CC0AFE4B0E0EFE4F0E08F
:1021D00080818F7C8C93AFE4B0E0EFE4F0E080810D
:1021E0008C9323C0AFE4B0E0EFE4F0E080818F7C1B
:1021F0008C93AFE4B0E0EFE4F0E0808180628C93F8
:1022000014C0AFE4B0E0EFE4F0E080818F7C8C9309
:10221000AFE4B0E0EFE4F0E0808180638C9305C030
:1022200081E0898302C081E08983AEE4B0E0EEE41E
:10223000F0E08081887F8C93AEE4B0E0EEE4F0E0E3
:102240009081EA81FB818081892B8C9305C084E099
:10225000898302C082E08983898129960FB6F89428
:10226000DEBF0FBECDBFCF91DF910895DF93CF9337
:10227000CDB7DEB727970FB6F894DEBF0FBECDBF40
:102280009B838A8319828A819B81009709F4DEC02F
:1022900080919001882309F0D6C081E0809390015D
:1022A000EA81FB818181282F30E03F832E838E815C
:1022B0009F818130910521F12E813F8122303105AE
:1022C0002CF48E819F81009761F046C02E813F8162
:1022D0002230310521F18E819F818330910571F18A
:1022E0003BC0A5E4B0E0E5E4F0E080818F7B8C9317
:1022F000A5E4B0E0E5E4F0E08081877F8C932CC01A
:10230000A5E4B0E0E5E4F0E0808180648C93A5E48E
:10231000B0E0E5E4F0E08081877F8C931DC0A5E408
:10232000B0E0E5E4F0E080818F7B8C93A5E4B0E041
:10233000E5E4F0E0808188608C930EC0A5E4B0E015
:10234000E5E4F0E0808180648C93A5E4B0E0E5E40E
:10235000F0E0808188608C93A5E4B0E0E5E4F0E0F3
:1023600080818F7C8C93EA81FB818181882329F095
:10237000EA81FB8181818230E1F4EA81FB81828103
:102380008430A0F4A5E4B0E0E5E4F0E08081282FFB
:10239000EA81FB818281882F90E082959295907FDF
:1023A0009827807F9827822B8C933BC081E089837C
:1023B00038C0EA81FB818181833029F0EA81FB8189
:1023C0008181813071F5EA81FB818281282F30E0A3
:1023D0003D832C838C819D818430910581F02C81FB
:1023E0003D812530310599F08C819D810097B9F4AC
:1023F000E5E4F0E0A5E4B0E08C91808312C0A5E4B0
:10240000B0E0E5E4F0E0808180628C930AC0A5E44E
:10241000B0E0E5E4F0E0808180638C9302C081E06D
:102420008983A5E4B0E0E5E4F0E08081887F8C93C7
:10243000A5E4B0E0E5E4F0E09081EA81FB818081F1
:10244000892B8C9305C084E0898302C082E0898354
:10245000898127960FB6F894DEBF0FBECDBFCF910E
:10246000DF910895DF93CF9300D000D000D0CDB797
:10247000DEB79B838A836C8319828A819B81009754
:1024800009F460C0A3E5B0E0E3E5F0E080818F7C73
:102490008C93EA81FB818181882329F0EA81FB8189
:1024A00081818230C1F48C81843090F4A3E5B0E066
:1024B000E3E5F0E08081282F8C81882F90E08295E1
:1024C0009295907F9827807F9827822B8C933CC091
:1024D00081E0898339C0EA81FB818181833029F0E1
:1024E000EA81FB818181813079F58C81282F30E070
:1024F0003E832D838D819E818430910581F02D81D5
:102500003E812530310599F08D819E810097B9F487
:10251000E3E5F0E0A3E5B0E08C91808315C0A3E58E
:10252000B0E0E3E5F0E0808180628C930DC0A3E52C
:10253000B0E0E3E5F0E0808180638C9305C081E04A
:10254000898302C082E08983898126960FB6F89438
:10255000DEBF0FBECDBFCF91DF910895DF93CF9344
:10256000CDB7DEB728970FB6F894DEBF0FBECDBF4C
:102570009B838A836C8319828A819B81009709F4EB
:10258000A5C0EA81FB818181282F30E038872F8325
:102590008F8198858C309105ACF42F81388525305A
:1025A00031050CF042C08F81988584309105BCF4D0
:1025B0002F81388521303105C4F58F8198850097AA
:1025C00071F081C02F8138852C30310541F08F8129
:1025D00098850E978230910508F075C026C08C81D1
:1025E0008430E0F4AFE4B0E0EFE4F0E080818F739A
:1025F0008C93AFE4B0E0EFE4F0E08081282F8C8191
:10260000882F90E000249695879507949695879556
:102610000794982F802D822B8C935AC08C81863002
:1026200009F456C081E0898353C08C81282F30E0A3
:102630003E832D838D819E818430910519F12D81FA
:102640003E81253031052CF48D819E81009761F00B
:1026500037C02D813E812530310519F18D819E8154
:1026600086309105A9F12CC0AFE4B0E0EFE4F0E0D2
:1026700080818F738C93AFE4B0E0EFE4F0E0808171
:102680008C9326C0AFE4B0E0EFE4F0E080818F737C
:102690008C93AFE4B0E0EFE4F0E0808180688C934D
:1026A00017C0AFE4B0E0EFE4F0E080818F738C936B
:1026B000AFE4B0E0EFE4F0E08081806C8C9308C080
:1026C00081E0898305C081E0898302C082E089833B
:1026D000898128960FB6F894DEBF0FBECDBFCF918B
:1026E000DF910895DF93CF93CDB7DEB728970FB66C
:1026F000F894DEBF0FBECDBF9B838A836C831982A3
:102700008A819B81009709F4A2C0EA81FB818181C3
:10271000282F30E038872F838F8198858C30910562
:10272000ACF42F813885253031050CF03FC08F8106
:10273000988584309105BCF42F813885213031058E
:10274000ACF58F819885009771F07EC02F81388518
:102750002C30310541F08F8198850E97823091059C
:1027600008F072C023C08C818430C8F4AFE4B0E0BC
:10277000EFE4F0E080818F7C8C93AFE4B0E0EFE495
:10278000F0E08081282F8C81882F90E082959295AF
:10279000907F9827807F9827822B8C935AC08C81BA
:1027A000863009F456C081E0898353C08C81282F7C
:1027B00030E03E832D838D819E818430910519F117
:1027C0002D813E81253031052CF48D819E8100972D
:1027D00061F037C02D813E812530310519F18D81A1
:1027E0009E8186309105A9F12CC0AFE4B0E0EFE402
:1027F000F0E080818F7C8C93AFE4B0E0EFE4F0E018
:1028000080818C9326C0AFE4B0E0EFE4F0E08081FB
:102810008F7C8C93AFE4B0E0EFE4F0E080818062E5
:102820008C9317C0AFE4B0E0EFE4F0E080818F7CE0
:102830008C93AFE4B0E0EFE4F0E0808180638C93B0
:1028400008C081E0898305C081E0898302C082E0FD
:102850008983898128960FB6F894DEBF0FBECDBF5D
:10286000CF91DF910895DF93CF93CDB7DEB728974F
:102870000FB6F894DEBF0FBECDBF9B838A836C83F7
:1028800019828A819B81009709F4CDC0EA81FB817E
:102890008181282F30E038872F838F819885813080
:1028A000910521F12F813885223031052CF48F815B
:1028B0009885009761F046C02F8138852230310518
:1028C00021F18F8198858330910571F13BC0A5E49A
:1028D000B0E0E5E4F0E080818F7B8C93A5E4B0E08C
:1028E000E5E4F0E08081877F8C932CC0A5E4B0E024
:1028F000E5E4F0E0808180648C93A5E4B0E0E5E459
:10290000F0E08081877F8C931DC0A5E4B0E0E5E412
:10291000F0E080818F7B8C93A5E4B0E0E5E4F0E00B
:10292000808188608C930EC0A5E4B0E0E5E4F0E01F
:10293000808180648C93A5E4B0E0E5E4F0E08081E0
:1029400088608C93A5E4B0E0E5E4F0E080818F7CC2
:102950008C93EA81FB818181882329F0EA81FB81C4
:1029600081818230C1F48C81843090F4A5E4B0E0A0
:10297000E5E4F0E08081282F8C81882F90E082951B
:102980009295907F9827807F9827822B8C9339C0CF
:1029900081E0898336C0EA81FB818181833029F01F
:1029A000EA81FB818181813061F58C81282F30E0C3
:1029B0003E832D838D819E818430910581F02D8110
:1029C0003E812530310599F08D819E810097B9F4C3
:1029D000E5E4F0E0A5E4B0E08C91808312C0A5E4CA
:1029E000B0E0E5E4F0E0808180628C930AC0A5E469
:1029F000B0E0E5E4F0E0808180638C9302C081E088
:102A00008983A5E4B0E0E5E4F0E08081887F8C93E1
:102A1000A5E4B0E0E5E4F0E09081EA81FB8180810B
:102A2000892B8C9302C082E08983898128960FB616
:102A3000F894DEBF0FBECDBFCF91DF910895DF9335
:102A4000CF9300D000D0CDB7DEB78A8319828A81B8
:102A5000282F30E03C832B838B819C818330910530
:102A600009F442C02B813C81243031057CF48B81F8
:102A70009C818130910541F12B813C8122303105CF
:102A80005CF58B819C810097B9F056C02B813C810D
:102A900025303105C9F18B819C818530910564F128
:102AA0002B813C812630310509F43EC08B819C810D
:102AB0008730910589F140C0A9E5B0E0E9E5F0E093
:102AC000808181608C933AC0A9E5B0E0E9E5F0E04F
:102AD000808182608C9332C0A9E5B0E0E9E5F0E046
:102AE000808184608C932AC0A9E5B0E0E9E5F0E03C
:102AF000808180618C9322C0A9E5B0E0E9E5F0E037
:102B0000808188608C931AC0A9E5B0E0E9E5F0E027
:102B1000808180628C9312C0A9E5B0E0E9E5F0E025
:102B2000808180688C930AC0A9E5B0E0E9E5F0E017
:102B3000808180648C9302C081E0898389810F90B9
:102B40000F900F900F90CF91DF910895DF93CF9367
:102B500000D000D0CDB7DEB78A8319828A81282FB2
:102B600030E03C832B838B819C818330910509F479
:102B700042C02B813C81243031057CF48B819C81C7
:102B80008130910541F12B813C81223031055CF58A
:102B90008B819C810097B9F056C02B813C812530F8
:102BA0003105C9F18B819C818530910564F12B81C0
:102BB0003C812630310509F43EC08B819C818730F1
:102BC000910589F140C0A9E5B0E0E9E5F0E0808138
:102BD0008E7F8C933AC0A9E5B0E0E9E5F0E0808112
:102BE0008D7F8C9332C0A9E5B0E0E9E5F0E080810B
:102BF0008B7F8C932AC0A9E5B0E0E9E5F0E0808105
:102C00008F7E8C9322C0A9E5B0E0E9E5F0E08081F9
:102C1000877F8C931AC0A9E5B0E0E9E5F0E08081F8
:102C20008F7D8C9312C0A9E5B0E0E9E5F0E08081EA
:102C30008F778C930AC0A9E5B0E0E9E5F0E08081E8
:102C40008F7B8C9302C081E0898389810F900F90E4
:102C50000F900F90CF91DF910895DF93CF9300D025
:102C600000D0CDB7DEB78A8319828A81282F30E061
:102C70003C832B838B819C818130910599F02B8142
:102C80003C8122303105C1F08B819C810097F1F4A9
:102C900010928E01A3E5B0E0E3E5F0E08081887F4B
:102CA0008C9316C010928F01AEE4B0E0EEE4F0E039
:102CB0008081887F8C930CC010929001A5E4B0E0D5
:102CC000E5E4F0E08081887F8C9302C081E0898315
:102CD00089810F900F900F900F90CF91DF91089501
:102CE000DF93CF9300D000D0CDB7DEB78A837C834B
:102CF0006B8319828B819C81009769F08A81882F70
:102D000090E0880F991FFC01EF56FE4F8B819C814C
:102D10009183808302C082E0898389810F900F9024
:102D20000F900F90CF91DF910895DF93CF930F9283
:102D3000CDB7DEB78983ECE5F0E0898180830F9021
:102D4000CF91DF910895DF93CF930F92CDB7DEB788
:102D50008983E2E5F0E0898180830F90CF91DF9154
:102D60000895DF93CF93CDB7DEB7E2E5F0E0808141
:102D7000CF91DF910895DF93CF930F92CDB7DEB758
:102D80008983E3E4F0E0898180830F90CF91DF9124
:102D90000895DF93CF930F92CDB7DEB78983E4E434
:102DA000F0E0898180830F90CF91DF910895DF93C8
:102DB000CF93CDB7DEB7E4E4F0E08081CF91DF912F
:102DC0000895DF93CF9300D0CDB7DEB79A83898380
:102DD000EAE4F0E089819A81918380830F900F90DB
:102DE000CF91DF910895DF93CF9300D0CDB7DEB7B9
:102DF0009A838983E8E4F0E089819A8191838083D2
:102E00000F900F90CF91DF910895DF93CF9300D073
:102E1000CDB7DEB79A838983ECE4F0E089819A81AB
:102E2000918380830F900F90CF91DF910895DF936E
:102E3000CF9300D0CDB7DEB79A838983E6E4F0E084
:102E400089819A81918380830F900F90CF91DF9138
:102E50000895DF93CF93CDB7DEB7ECE4F0E0808147
:102E60009181CF91DF910895DF93CF93CDB7DEB7F6
:102E7000E6E4F0E080819181CF91DF910895DF93C6
:102E8000CF9300D000D0CDB7DEB78A8319828A8174
:102E9000282F30E03C832B838B819C81009731F07D
:102EA0002B813C812130310549F010C0AEE4B0E007
:102EB000EEE4F0E0808180648C930AC0AEE4B0E080
:102EC000EEE4F0E080818F7B8C9302C081E0898307
:102ED00089810F900F900F900F90CF91DF910895FF
:102EE000DF93CF93CDB7DEB7A1E4B0E0E1E4F0E04B
:102EF000808188608C93CF91DF910895DF93CF9389
:102F0000CDB7DEB7A1E4B0E0E1E4F0E08081886114
:102F10008C93A1E4B0E0E1E4F0E08081877F8C93C2
:102F2000CF91DF910895DF93CF9300D0CDB7DEB777
:102F30008A8319828A81883080F4A1E4B0E0E1E4D8
:102F4000F0E08081887F8C93A1E4B0E0E1E4F0E0E0
:102F500090818A81892B8C9302C081E08983898149
:102F60000F900F90CF91DF9108951F920F920FB69F
:102F70000F9211242F933F934F935F936F937F93FF
:102F80008F939F93AF93BF93EF93FF93DF93CF9371
:102F9000CDB7DEB78091910190919201009729F011
:102FA000E0919101F09192010995CF91DF91FF910C
:102FB000EF91BF91AF919F918F917F916F915F91B1
:102FC0004F913F912F910F900FBE0F901F9018952A
:102FD0001F920F920FB60F9211242F933F934F938E
:102FE0005F936F937F938F939F93AF93BF93EF9371
:102FF000FF93DF93CF93CDB7DEB78091930190918C
:103000009401009729F0E0919301F09194010995C2
:10301000CF91DF91FF91EF91BF91AF919F918F91F0
:103020007F916F915F914F913F912F910F900FBEC4
:103030000F901F9018951F920F920FB60F921124A8
:103040002F933F934F935F936F937F938F939F93B0
:10305000AF93BF93EF93FF93DF93CF93CDB7DEB7DB
:103060008091950190919601009729F0E09195014A
:10307000F09196010995CF91DF91FF91EF91BF916A
:10308000AF919F918F917F916F915F914F913F9100
:103090002F910F900FBE0F901F9018951F920F92B7
:1030A0000FB60F9211242F933F934F935F936F931B
:1030B0007F938F939F93AF93BF93EF93FF93DF9390
:1030C000CF93CDB7DEB78091990190919A01009787
:1030D00029F0E0919901F0919A010995CF91DF9142
:1030E000FF91EF91BF91AF919F918F917F916F91E0
:1030F0005F914F913F912F910F900FBE0F901F90B6
:1031000018951F920F920FB60F9211242F933F9391
:103110004F935F936F937F938F939F93AF93BF93DF
:10312000EF93FF93DF93CF93CDB7DEB780919701F5
:1031300090919801009729F0E0919701F091980102
:103140000995CF91DF91FF91EF91BF91AF919F9141
:103150008F917F916F915F914F913F912F910F9040
:103160000FBE0F901F9018951F920F920FB60F92DF
:1031700011242F933F934F935F936F937F938F937C
:103180009F93AF93BF93EF93FF93DF93CF93CDB70D
:10319000DEB780919B0190919C01009729F0E0910E
:1031A0009B01F0919C010995CF91DF91FF91EF91E7
:1031B000BF91AF919F918F917F916F915F914F914F
:1031C0003F912F910F900FBE0F901F9018951F9257
:1031D0000F920FB60F9211242F933F934F935F934B
:1031E0006F937F938F939F93AF93BF93EF93FF93CF
:1031F000DF93CF93CDB7DEB780919D0190919E0173
:10320000009729F0E0919D01F0919E010995CF91E1
:10321000DF91FF91EF91BF91AF919F918F917F913E
:103220006F915F914F913F912F910F900FBE0F9033
:103230001F9018951F920F920FB60F9211242F9383
:103240003F934F935F936F937F938F939F93AF932E
:10325000BF93EF93FF93DF93CF93CDB7DEB780910A
:103260009F019091A001009729F0E0919F01F091BA
:10327000A0010995CF91DF91FF91EF91BF91AF919F
:103280009F918F917F916F915F914F913F912F917E
:103290000F900FBE0F901F901895DF93CF93CDB76F
:1032A000DEB7ADE2B0E0EDE2F0E080818F7D8C939F
:1032B000ADE2B0E0EDE2F0E0808180618C93ADE2C0
:1032C000B0E0EDE2F0E08081877F8C93ADE2B0E08A
:1032D000EDE2F0E080818C7F8C93ADE2B0E0EDE236
:1032E000F0E080818C93AEE2B0E0EEE2F0E080812D
:1032F0008E7F8C93ADE2B0E0EDE2F0E080818064FF
:103300008C93CF91DF910895DF93CF930F92CDB738
:10331000DEB78983EFE2F0E089818083EEE2F0E0BE
:1033200080818823DCF7EFE2F0E080810F90CF917D
:10333000DF910895DF93CF93CDB7DEB7EAE3F0E0F6
:103340001082E7E3F0E087EB8083E4E3F0E08FEFC7
:103350008083E1E3F0E080E88083EBE3F0E010823B
:10336000E8E3F0E088E08083E5E3F0E08FEF80833E
:10337000E2E3F0E08FE38083CF91DF910895DF9364
:10338000CF93CDB7DEB77894CF91DF910895DF93D7
:10339000CF93CDB7DEB7F894CF91DF910895DF9347
:1033A000CF93CDB7DEB728970FB6F894DEBF0FBE28
:1033B000CDBF8A836B834C8319828B81883008F060
:1033C000F4C08C81813009F072C08A81282F30E0EE
:1033D00038872F838F8198858130910549F12F811E
:1033E0003885223031052CF48F819885009761F063
:1033F0005BC02F8138852230310571F18F8198852E
:1034000083309105E9F150C0AAE3B0E0EAE3F0E0CF
:103410008081482F8B81282F30E081E090E0022EC0
:1034200002C0880F991F0A94E2F7842B8C93BFC0C7
:10343000A7E3B0E0E7E3F0E08081482F8B81282FFD
:1034400030E081E090E0022E02C0880F991F0A94BC
:10345000E2F7842B8C93ABC0A4E3B0E0E4E3F0E0AC
:103460008081482F8B81282F30E081E090E0022E70
:1034700002C0880F991F0A94E2F7842B8C9397C09F
:10348000A1E3B0E0E1E3F0E08081482F8B81282FB9
:1034900030E081E090E0022E02C0880F991F0A946C
:1034A000E2F7842B8C9383C081E0898380C08C8178
:1034B000882309F077C08A81282F30E03E832D834E
:1034C0008D819E818130910559F12D813E8122307F
:1034D00031052CF48D819E81009769F060C02D81AB
:1034E0003E812230310589F18D819E8183309105A5
:1034F00009F440C054C0AAE3B0E0EAE3F0E0808100
:10350000482F8B81282F30E081E090E0022E02C00E
:10351000880F991F0A94E2F7809584238C9347C003
:10352000A7E3B0E0E7E3F0E08081482F8B81282F0C
:1035300030E081E090E0022E02C0880F991F0A94CB
:10354000E2F7809584238C9332C0A4E3B0E0E4E3F7
:10355000F0E08081482F8B81282F30E081E090E0DF
:10356000022E02C0880F991F0A94E2F780958423E7
:103570008C931DC0A1E3B0E0E1E3F0E08081482F2F
:103580008B81282F30E081E090E0022E02C0880F6E
:10359000991F0A94E2F7809584238C9308C081E0F8
:1035A000898305C081E0898302C081E089838981A4
:1035B00028960FB6F894DEBF0FBECDBFCF91DF9136
:1035C0000895DF93CF93CDB7DEB728970FB6F89461
:1035D000DEBF0FBECDBF8A836B834C8319828B8184
:1035E000883008F0F4C08C81813009F072C08A8183
:1035F000282F30E038872F838F819885813091057F
:1036000049F12F813885223031052CF48F8198853E
:10361000009761F05BC02F8138852230310571F150
:103620008F81988583309105E9F150C0ABE3B0E01C
:10363000EBE3F0E08081482F8B81282F30E081E0A0
:1036400090E0022E02C0880F991F0A94E2F7842BA3
:103650008C93BFC0A8E3B0E0E8E3F0E08081482F9E
:103660008B81282F30E081E090E0022E02C0880F8D
:10367000991F0A94E2F7842B8C93ABC0A5E3B0E0CA
:10368000E5E3F0E08081482F8B81282F30E081E056
:1036900090E0022E02C0880F991F0A94E2F7842B53
:1036A0008C9397C0A2E3B0E0E2E3F0E08081482F82
:1036B0008B81282F30E081E090E0022E02C0880F3D
:1036C000991F0A94E2F7842B8C9383C081E089834D
:1036D00080C08C81882309F077C08A81282F30E050
:1036E0003E832D838D819E818130910559F12D81FD
:1036F0003E81223031052CF48D819E81009769F046
:1037000060C02D813E812230310589F18D819E81FD
:103710008330910509F440C054C0ABE3B0E0EBE363
:10372000F0E08081482F8B81282F30E081E090E00D
:10373000022E02C0880F991F0A94E2F78095842315
:103740008C9347C0A8E3B0E0E8E3F0E08081482F25
:103750008B81282F30E081E090E0022E02C0880F9C
:10376000991F0A94E2F7809584238C9332C0A5E3D5
:10377000B0E0E5E3F0E08081482F8B81282F30E036
:1037800081E090E0022E02C0880F991F0A94E2F7B0
:10379000809584238C931DC0A2E3B0E0E2E3F0E0C7
:1037A0008081482F8B81282F30E081E090E0022E2D
:1037B00002C0880F991F0A94E2F7809584238C93A6
:1037C00008C081E0898305C081E0898302C081E06F
:1037D0008983898128960FB6F894DEBF0FBECDBFCE
:1037E000CF91DF910895DF93CF9300D000D00F9257
:1037F000CDB7DEB78A836B8319828B81883008F05E
:1038000072C08A81282F30E03D832C838C819D817A
:103810008130910549F12C813D81223031052CF414
:103820008C819D81009761F05BC02C813D812230AD
:10383000310571F18C819D8183309105E9F150C092
:10384000ABE3B0E0EBE3F0E08081482F8B81282FE1
:1038500030E081E090E0022E02C0880F991F0A94A8
:10386000E2F784278C9341C0A8E3B0E0E8E3F0E0FE
:103870008081482F8B81282F30E081E090E0022E5C
:1038800002C0880F991F0A94E2F784278C932DC0F9
:10389000A5E3B0E0E5E3F0E08081482F8B81282F9D
:1038A00030E081E090E0022E02C0880F991F0A9458
:1038B000E2F784278C9319C0A2E3B0E0E2E3F0E0E2
:1038C0008081482F8B81282F30E081E090E0022E0C
:1038D00002C0880F991F0A94E2F784278C9305C0D1
:1038E00081E0898302C081E0898389810F900F90F4
:1038F0000F900F900F90CF91DF910895DF93CF93AA
:10390000CDB7DEB727970FB6F894DEBF0FBECDBF99
:103910008A836B835D834C8319828B81883008F0A6
:1039200074C08A81282F30E03F832E834E815F81CF
:103930004130510559F18E819F818230910534F4D7
:103940002E813F812115310569F05CC04E815F8178
:103950004230510579F18E819F818330910509F4C0
:103960003DC050C0E9E3F0E08081282F30E08B813A
:10397000882F90E0A90102C0559547958A95E2F7F6
:10398000CA018170EC81FD81808341C0E6E3F0E0F3
:103990008081282F30E08B81882F90E0A90102C020
:1039A000559547958A95E2F7CA018170EC81FD81B2
:1039B00080832DC0E3E3F0E08081282F30E08B810D
:1039C000882F90E0A90102C0559547958A95E2F7A6
:1039D000CA018170EC81FD81808319C0E0E3F0E0D1
:1039E0008081282F30E08B81882F90E0A90102C0D0
:1039F000559547958A95E2F7CA018170EC81FD8162
:103A0000808305C081E0898302C081E08983898148
:103A100027960FB6F894DEBF0FBECDBFCF91DF91D2
:103A20000895DF93CF9300D000D00F92CDB7DEB7CB
:103A30008A836B8319828A81282F30E03D832C830F
:103A40008C819D8181309105D1F02C813D81223086
:103A500031052CF48C819D81009761F01FC02C8171
:103A60003D812230310581F08C819D81833091052B
:103A700081F014C0EAE3F0E08B81808311C0E7E3BA
:103A8000F0E08B8180830CC0E4E3F0E08B818083E5
:103A900007C0E1E3F0E08B81808302C081E089838D
:103AA00089810F900F900F900F900F90CF91DF9121
:103AB0000895DF93CF9300D000D00F92CDB7DEB73B
:103AC0008A836B8319828A81282F30E03D832C837F
:103AD0008C819D8181309105D1F02C813D812230F6
:103AE00031052CF48C819D81009761F01FC02C81E1
:103AF0003D812230310581F08C819D81833091059B
:103B000081F014C0EBE3F0E08B81808311C0E8E327
:103B1000F0E08B8180830CC0E5E3F0E08B81808353
:103B200007C0E2E3F0E08B81808302C081E08983FB
:103B300089810F900F900F900F900F90CF91DF9190
:103B40000895DF93CF93CDB7DEB7A7E2B0E0E7E209
:103B5000F0E0808180648C93A7E2B0E0E7E2F0E0DF
:103B600080818F778C93A7E2B0E0E7E2F0E080817C
:103B70008F7D8C93A6E2B0E0E6E2F0E08081887F62
:103B80008C93A6E2B0E0E6E2F0E0808187608C935F
:103B9000A6E2B0E0E6E2F0E0808180688C93CF910D
:103BA000DF910895DF93CF93CDB7DEB728970FB697
:103BB000F894DEBF0FBECDBF8E8378876F831D82E2
:103BC00019821A821B821C828F819885009709F4C2
:103BD00065C08091A501882309F05DC081E08093D4
:103BE000A501A7E2B0E0E7E2F0E08081807E8C935F
:103BF000A7E2B0E0E7E2F0E090818E81892B8C9320
:103C0000A6E2B0E0E6E2F0E0808180648C930BC035
:103C100089819A81AB81BC810196A11DB11D8983E7
:103C20009A83AB83BC83E6E2F0E0808182958F705B
:103C3000882F90E081709070009761F489819A815B
:103C4000AB81BC81803A26E8920721E0A20720E000
:103C5000B207F0F289819A81AB81BC81803A26E873
:103C6000920721E0A20720E0B20719F483E08D83D8
:103C70000FC0A6E2B0E0E6E2F0E0808180618C93C4
:103C8000E4E2F0E080819181EF81F8859183808387
:103C90001092A50105C084E08D8302C082E08D836F
:103CA0008D8128960FB6F894DEBF0FBECDBFCF91A1
:103CB000DF910895DF93CF9300D000D000D0CDB72F
:103CC000DEB78A837C836B835E834D8319828B810D
:103CD0009C810097D1F18D819E810097B1F18091F7
:103CE000A501882379F581E08093A5011092A901AF
:103CF0008B819C819093A4018093A3018D819E81EF
:103D00009093A2018093A101A7E2B0E0E7E2F0E086
:103D10008081807E8C93A7E2B0E0E7E2F0E09081C2
:103D20008A81892B8C93A6E2B0E0E6E2F0E0808104
:103D300080648C93A6E2B0E0E6E2F0E080818860E7
:103D40008C9305C084E0898302C082E089838981E5
:103D500026960FB6F894DEBF0FBECDBFCF91DF9190
:103D60000895DF93CF9300D00F92CDB7DEB79B833A
:103D70008A8319828A819B81009709F454C0EA8161
:103D8000FB8180819181009709F44DC0EA81FB811C
:103D900084819581009709F446C0EA81FB81828184
:103DA0009381009709F43FC08091A5018823C9F54C
:103DB00081E08093A50181E08093A9018A819B81A4
:103DC0009093A7018093A6011092A801A7E2B0E00A
:103DD000E7E2F0E08081807E8C93A7E2B0E0E7E24A
:103DE000F0E04081E091A601F091A70120813181AE
:103DF0008091A801882F90E0F901E80FF91F8081D8
:103E0000842B8C93A6E2B0E0E6E2F0E0808180644F
:103E10008C93A6E2B0E0E6E2F0E0808188608C93CB
:103E200002C084E0898389810F900F900F90CF9119
:103E3000DF9108951F920F920FB60F9211242F93C6
:103E40003F934F935F936F937F938F939F93AF9322
:103E5000BF93EF93FF93DF93CF93CDB7DEB78091FE
:103E6000A901882339F58091A3019091A4010097BD
:103E700009F48DC0A091A301B091A401E4E2F0E0A7
:103E8000808191818D939C93A6E2B0E0E6E2F0E020
:103E90008081877F8C931092A5018091A1019091E0
:103EA000A201009709F473C0E091A101F091A20171
:103EB00009956DC08091A901813009F068C0809199
:103EC000A6019091A701009709F461C0E091A601B5
:103ED000F091A701228133818091A801882F90E081
:103EE000880F991FD901A80FB91FE4E2F0E0808183
:103EF000918111969C938E938091A8018F5F8093FE
:103F0000A801E091A601F091A70196818091A801F6
:103F1000891720F5A7E2B0E0E7E2F0E08081807E3B
:103F20008C93A7E2B0E0E7E2F0E04081E091A601E7
:103F3000F091A701208131818091A801882F90E024
:103F4000F901E80FF91F8081842B8C93A6E2B0E081
:103F5000E6E2F0E0808180648C9319C0A6E2B0E0D4
:103F6000E6E2F0E08081877F8C931092A501E091DA
:103F7000A601F091A70184819581009741F0E0911D
:103F8000A601F091A7010480F581E02D0995CF915C
:103F9000DF91FF91EF91BF91AF919F918F917F91B1
:103FA0006F915F914F913F912F910F900FBE0F90A6
:103FB0001F901895DF93CF93CDB7DEB7AA970FB6B2
:103FC000F894DEBF0FBECDBF98A78FA37AA769A7CD
:103FD0001AA219A21D8E1E8E1F8E18A2198E1A8E5D
:103FE0001B8E1C8E82E08BA31CA21DA21EA2CE01E2
:103FF00083960E94A70F89A389A1882309F0BBC1DA
:1040000028EF31E282E0B9010E94701680E00E9440
:104010003F1727EC31E285E0B9010E94701685E078
:104020000E941F15EFA1F8A58081EFA1F8A591814D
:10403000692F41E00E94E11A80E090E0A8ECB2E430
:104040008D8B9E8BAF8BB88F6D897E898F89988D74
:104050002BEA3AEA4AE250E40E941F02DC01CB015B
:10406000898B9A8BAB8BBC8B69897A898B899C896C
:1040700020E030E040E85FE30E94250488231CF440
:1040800081E0888B91C069897A898B899C8920E03D
:1040900030E04FE753E40E94C50318160CF07BC0D4
:1040A0006D897E898F89988D20E030E04AE754E45D
:1040B0000E941903DC01CB018C879D87AE87BF87E7
:1040C0006C857D858E859F8520E030E04AEF54E445
:1040D0000E941F02DC01CB0188879987AA87BB87D2
:1040E000688579858A859B8520E030E040E85FE33C
:1040F0000E94250488232CF481E090E09F838E8326
:104100003FC0688579858A859B8520E03FEF4FE732
:1041100057E40E94C50318164CF56C857D858E8585
:104120009F8520E030E040E251E40E941F02DC0164
:10413000CB01BC01CD010E944900DC01CB019F8372
:104140008E830FC088EC90E09D838C838C819D8151
:104150000197F1F79D838C838E819F8101979F83C7
:104160008E838E819F81009769F724C06885798549
:104170008A859B850E944900DC01CB019F838E8349
:104180008E819F819B838A838A819B810197F1F72E
:104190009B838A830FC069897A898B899C890E9455
:1041A0004900DC01CB01888B8889898389818A95C4
:1041B000F1F78983EFA1F8A58081EFA1F8A591819E
:1041C000692F40E00E94E11A0BC0898D9A8DAB8D5A
:1041D000BC8D0196A11DB11D898F9A8FAB8FBC8FAD
:1041E0008091AA019091AB01009731F08091AC01D0
:1041F0009091AD01009761F4898D9A8DAB8DBC8D46
:10420000803E23E9920724E0A20720E0B207E8F20B
:1042100082E00E94A61585E00E94A61581E00E941A
:104220002D168091B0019091B1010097A1F42091D9
:10423000AC013091AD018091AA019091AB01A9012F
:10424000481B590BCA01CC01A0E0B0E08D8F9E8FB6
:10425000AF8FB8A359C02091AC013091AD018091CE
:10426000AA019091AB012817390710F12091AC01F8
:104270003091AD018091AA019091AB01A901481B39
:10428000590BCA019C0140E050E08091B00190912F
:10429000B101CC01A0E0B0E0DC0199278827820FB2
:1042A000931FA41FB51F8D8F9E8FAF8FB8A32CC0F7
:1042B0002091AC013091AD018091AA019091AB01A8
:1042C0002817390708F52091AA013091AB01809198
:1042D000AC019091AD01A901481B590BCA019C0189
:1042E00040E050E08091B0019091B101CC01A0E09C
:1042F000B0E0DC0199278827820F931FA41FB51F08
:104300008D8F9E8FAF8FB8A36D8D7E8D8F8D98A171
:104310000E940705DC01CB01BC01CD0120E030E0AB
:1043200040E050E40E941903DC01CB01BC01CD0147
:1043300026E933E44BE05DE30E941F02DC01CB0180
:10434000BC01CD010E944900DC01CB01E9A5FAA521
:10435000918380831092AB011092AA011092AD015B
:104360001092AC011092AF011092AE011092B10107
:104370001092B00102C081E08AA38AA1AA960FB66A
:10438000F894DEBF0FBECDBFCF91DF910895DF93CC
:10439000CF93CDB7DEB78091B2018F5F8093B2012A
:1043A0008091B201813069F482E00E941F150E9461
:1043B00034179093AB018093AA0181E00E943F17CC
:1043C00014C08091B201823081F40E94341790931E
:1043D000AD018093AC018091AE019091AF019093BB
:1043E000B1018093B0011092B201CF91DF91089595
:1043F000DF93CF93CDB7DEB78091AE019091AF013F
:1044000001969093AF018093AE01CF91DF91089513
:10441000DF93CF9300D00F92CDB7DEB79B838A8313
:1044200019828A819B810097A9F0EA81FB818081B2
:10443000EA81FB819181692F40E00E94E11AEA81C3
:10444000FB818081EA81FB819281692F41E00E949A
:10445000E11A02C082E0898389810F900F900F904A
:10446000CF91DF910895DF93CF9300D00F92CDB716
:10447000DEB79B838A8319828A819B810097A9F08A
:10448000EA81FB818081EA81FB819281692F40E092
:104490000E94E11AEA81FB818081EA81FB8191819E
:1044A000692F41E00E94E11A02C082E0898389817C
:1044B0000F900F900F90CF91DF910895DF93CF93DE
:1044C00000D00F92CDB7DEB79B838A8319828A8191
:1044D0009B810097A9F0EA81FB818081EA81FB81C1
:1044E0009281692F40E00E94E11AEA81FB8180817C
:1044F000EA81FB819181692F40E00E94E11A02C0AC
:1045000082E0898389810F900F900F90CF91DF9186
:104510000895DF93CF930F92CDB7DEB7898389815A
:10452000813031F481E064E040E00E94E11A08C08B
:104530008981882329F481E064E041E00E94E11A46
:104540000F90CF91DF910895DF93CF9300D0CDB737
:10455000DEB78A8381E00E94892283E00E94841969
:104560008A810E94841980E00E948419898380E0F6
:104570000E94892289810F900F90CF91DF91089539
:10458000DF93CF9300D0CDB7DEB789836A8381E014
:104590000E94892282E00E94841989810E948419E4
:1045A0008A810E94841980E00E9489220F900F90D6
:1045B000CF91DF910895DF93CF9300D00F92CDB7C5
:1045C000DEB789836A834B838AE269810E94C022B5
:1045D00089E26A810E94C02288E26B810E94C02227
:1045E0000F900F900F90CF91DF910895DF93CF93AD
:1045F000CDB7DEB781E00E94892280EC0E94841949
:1046000080E00E948922CF91DF910895DF93CF93BC
:1046100000D00F92CDB7DEB789836A834B8381E0E8
:104620000E94892285E00E94841989810E94841950
:104630008A810E9484198B810E94841980E00E94E3
:1046400089220F900F900F90CF91DF910895DF9303
:10465000CF930F92CDB7DEB789838981982F92953A
:10466000990F907E8FE060EE492F0E9406238EE026
:104670000E94A422982F92959695977089819817F9
:10468000B1F70F90CF91DF910895DF93CF93CDB71E
:10469000DEB70E944D190E94F6228FE064E80E9466
:1046A000C0228EE00E94A422829586958770843075
:1046B000C1F780E861EB45E00E94DB2280E00E94C8
:1046C0002723CF91DF910895CF92DF92EF92FF924F
:1046D0000F931F93DF93CF93CDB7DEB72F970FB60E
:1046E000F894DEBF0FBECDBFCA82DB82EC82FD82B2
:1046F0000E831F83288739874A875B876C877D876E
:104700008E879F8781E00E94892282E00E9484191F
:1047100080E30E94841983E00E9484198A819B812E
:10472000AC81BD81689412F8B695A7959795879549
:104730001694D1F70E9484198A819B81AC81BD8136
:104740008295880F807E0E94841980E00E948419DF
:1047500080E00E9484198E85282F8F85882F90E015
:104760000024969587950794969587950794982F9A
:10477000802D822B0E94841919820EC08981282FD6
:1047800030E0CE010696FC01E20FF31F80810E940B
:10479000841989818F5F89839E858981891770F348
:1047A00080E00E94892281E00E94892281E80E94A3
:1047B000841980E00E9489222F960FB6F894DEBFFC
:1047C0000FBECDBFCF91DF911F910F91FF90EF9062
:1047D000DF90CF900895DF93CF930F92CDB7DEB7E0
:1047E00089838981982F990F990F80E664E0492F7A
:1047F0000E9406230F90CF91DF910895DF93CF930E
:1048000000D000D000D0CDB7DEB789834A835B8368
:104810006C837D832E8381E00E94892282E00E9446
:10482000841989810E9484198E81882309F443C0E8
:104830008A819B81AC81BD81689412F8B695A79559
:10484000979587951694D1F70E9484198A81282F0D
:104850002295220F207E8A819B81AC81BD81072E0B
:104860007BE1B695A795979587957A95D1F7702DA9
:10487000822B88600E9484198A819B81AC81BD81D2
:10488000072E73E1B695A795979587957A95D1F7F9
:10489000702D0E9484198A819B81AC81BD81072E75
:1048A0007BE0B695A795979587957A95D1F7702D6A
:1048B0000E94841914C08A819B81AC81BD81689457
:1048C00012F8B695A795979587951694D1F70E94FB
:1048D00084198A818295880F807E0E94841980E0E5
:1048E0000E94892226960FB6F894DEBF0FBECDBF78
:1048F000CF91DF910895DF93CF93CDB7DEB70E94BC
:104900004D190E94F6228FE064E80E94C0228EE0DA
:104910000E94A4228295869587708430C1F780E832
:1049200061EB45E00E94DB2280E240E050E060E085
:1049300070E021E00E94FE2384E240E050E060E06D
:1049400070E021E00E94FE2381E00E94EB238BE2D5
:1049500061E00E94C02280E00E942723CF91DF9176
:1049600008950F931F93DF93CF93CDB7DEB767976B
:104970000FB6F894DEBF0FBECDBF9A8B898B8EE049
:10498000FE013396DF01982F1D929A95E9F71A825E
:1049900081E00E94892283E00E94841980E60E94BF
:1049A00084191A820DC08A81082F10E080E00E94CD
:1049B0008419F801ED54FE4F80838A818F5F8A83CA
:1049C0008A818E3080F380E00E9489228CE260E050
:1049D0000E94C0228091B401882F90E0A0E0B0E056
:1049E0008B839C83AD83BE838B819C81AD81BE8193
:1049F000880F991FAA1FBB1F880F991FAA1FBB1FD3
:104A0000880F991FAA1FBB1F8B839C83AD83BE8316
:104A10008091B50189832B813C814D815E818981A3
:104A2000829586958770882F90E0A0E0B0E0822B79
:104A3000932BA42BB52B8B839C83AD83BE8380915A
:104A4000B8018F708F871A8214C08A81482F50E076
:104A50008A81882F90E00696FC01ED54FE4F20815C
:104A6000CE010796FC01E40FF51F20838A818F5F3A
:104A70008A838A81883048F38091B3018695869530
:104A800086958170888BA989BA89BC8BAB8BFE0116
:104A90003396FE8BED8BFEE0FF8BAD89BE890C90CB
:104AA000ED89FE893196FE8BED8BAB89BC890C922A
:104AB000EB89FC893196FC8BEB8BFF89F150FF8BE6
:104AC0008F89882351F789899A8967960FB6F89458
:104AD000DEBF0FBECDBFCF91DF911F910F91089523
:104AE0000F931F93DF93CF930F92CDB7DEB781E083
:104AF0000E94892283E00E94841980E60E94841922
:104B000019820DC08981082F10E080E00E9484196D
:104B1000F801ED54FE4F808389818F5F89838981FD
:104B20008E3080F380E00E9489228CE260E00E9457
:104B3000C0220F90CF91DF911F910F910895DF93C5
:104B4000CF93CDB7DEB72A970FB6F894DEBF0FBE6E
:104B5000CDBF8E8378876F831B821A8219821D8254
:104B60001C828F819885009709F49CC08E81282F24
:104B700030E03A87298789859A858330910509F441
:104B800041C029853A85243031057CF489859A8590
:104B90008130910539F129853A852230310554F566
:104BA00089859A850097B1F055C029853A852530C9
:104BB0003105C1F189859A85853091055CF129859A
:104BC0003A8526303105B1F189859A85873091057E
:104BD000C9F140C09E012C5F3F4F80E0B9010E94A7
:104BE000D21D3AC09E012C5F3F4F81E0B9010E9467
:104BF000D21D32C09E012C5F3F4F82E0B9010E945E
:104C0000D21D2AC09E012C5F3F4F83E0B9010E9454
:104C1000D21D22C09E012C5F3F4F84E0B9010E944B
:104C2000D21D1AC09E012C5F3F4F85E0B9010E9442
:104C3000D21D12C09E012C5F3F4F86E0B9010E9439
:104C4000D21D0AC09E012C5F3F4F87E0B9010E9430
:104C5000D21D02C081E08B838C819D81CC01A0E0BC
:104C6000B0E028E833E140E050E0BC01CD010E9413
:104C7000A92FDC01CB01072E7AE0B695A795979571
:104C800087957A95D1F7702D9A83898389819A8146
:104C90002AE030E0B9010E94C82FCB01EF81F885EE
:104CA000808302C082E08B838B812A960FB6F894B2
:104CB000DEBF0FBECDBFCF91DF910895DF93CF93BD
:104CC000CDB7DEB728970FB6F894DEBF0FBECDBFC5
:104CD0008C837E836D8319821B821A828D819E81D3
:104CE000009709F493C08C81282F30E038872F83F8
:104CF0008F8198858330910509F441C02F813885D3
:104D0000243031057CF48F8198858130910539F10B
:104D10002F8138852230310554F58F819885009791
:104D2000B1F055C02F81388525303105C1F18F8113
:104D30009885853091055CF12F81388526303105C5
:104D4000B1F18F81988587309105C9F140C09E01EE
:104D50002E5F3F4F80E0B9010E94D21D3AC09E01F4
:104D60002E5F3F4F81E0B9010E94D21D32C09E01EB
:104D70002E5F3F4F82E0B9010E94D21D2AC09E01E2
:104D80002E5F3F4F83E0B9010E94D21D22C09E01D9
:104D90002E5F3F4F84E0B9010E94D21D1AC09E01D0
:104DA0002E5F3F4F85E0B9010E94D21D12C09E01C7
:104DB0002E5F3F4F86E0B9010E94D21D0AC09E01BE
:104DC0002E5F3F4F87E0B9010E94D21D02C081E0F3
:104DD00089838A819B81CC01A0E0B0E028E833E19F
:104DE00040E050E0BC01CD010E94A92FDC01CB01C5
:104DF000072E7AE0B695A795979587957A95D1F77E
:104E0000702DED81FE819183808302C082E08983D1
:104E1000898128960FB6F894DEBF0FBECDBFCF9123
:104E2000DF910895EF92FF920F931F93DF93CF933B
:104E3000CDB7DEB72E970FB6F894DEBF0FBECDBF4D
:104E400088877A8769875C874B873E872D871D8295
:104E50001F821E8219821A821B821C828D859E856A
:104E6000009709F464C09E012A5F3F4F8885B9010D
:104E70000E945E2689859A852AE030E0B9010E9469
:104E8000C82FCB017C0100E010E08B859C852AE0D7
:104E900030E0B9010E94C82FCB019C0140E050E0F6
:104EA000C801B7010E94A92FDC01CB0189839A8335
:104EB000AB83BC838E819F819C0140E050E089815F
:104EC0009A81AB81BC81BC01CD010E94DC2FDA014B
:104ED000C90189839A83AB83BC8389819A81AB8121
:104EE000BC8124E630E040E050E0BC01CD010E94EE
:104EF000A92F9B01AC018B859C85CC01A0E0B0E083
:104F000079018A01E81AF90A0A0B1B0BD801C701BB
:104F100089839A83AB83BC83ED85FE8589819A81E1
:104F2000AB81BC8180839183A283B38302C082E082
:104F30008D838D812E960FB6F894DEBF0FBECDBF48
:104F4000CF91DF911F910F91FF90EF900895DF9324
:104F5000CF93CDB7DEB72E970FB6F894DEBF0FBE56
:104F6000CDBF82E065E041E00E94E11A80E090E080
:104F7000A0E0B0E48B879C87AD87BE876B857C857E
:104F80008D859E8520E030E04AEF54E40E941F02A8
:104F9000DC01CB018F839887A987BA876F817885D9
:104FA00089859A8520E030E040E85FE30E9425048F
:104FB00088232CF481E090E09E838D833FC06F8135
:104FC000788589859A8520E03FEF4FE757E40E9476
:104FD000C50318164CF56B857C858D859E8520E074
:104FE00030E040E251E40E941F02DC01CB01BC0131
:104FF000CD010E944900DC01CB019E838D830FC04F
:1050000088EC90E09C838B838B819C810197F1F7E6
:105010009C838B838D819E8101979E838D838D815F
:105020009E81009769F714C06F81788589859A857C
:105030000E944900DC01CB019E838D838D819E817E
:105040009A83898389819A810197F1F79A83898369
:1050500082E065E040E00E94E11A2E960FB6F894D7
:10506000DEBF0FBECDBFCF91DF910895DF93CF9309
:105070000F92CDB7DEB789838981982F917082E036
:1050800064E0492F0E94E11A89818695982F9170DA
:1050900082E063E0492F0E94E11A89818695869516
:1050A000982F917082E062E0492F0E94E11A898175
:1050B000869586958695982F917082E061E0492FBC
:1050C0000E94E11A0F90CF91DF910895DF93CF9363
:1050D0000F92CDB7DEB7898382E067E040E00E949F
:1050E000E11A82E066E040E00E94E11A898182953F
:1050F0008F700E9436280E94A72789810E94362837
:105100000E94A7270F90CF91DF910895DF93CF934F
:105110000F92CDB7DEB7898382E067E041E00E945D
:10512000E11A82E066E040E00E94E11A89818295FE
:105130008F700E9436280E94A72789810E943628F6
:105140000E94A7270F90CF91DF910895DF93CF930F
:10515000CDB7DEB72F970FB6F894DEBF0FBECDBF29
:1051600080E090E0A0E2B2E48B879C87AD87BE87A9
:105170006B857C858D859E8520E030E04AEF54E488
:105180000E941F02DC01CB018F839887A987BA8711
:105190006F81788589859A8520E030E040E85FE37B
:1051A0000E94250488232CF481E090E09E838D8367
:1051B0003FC06F81788589859A8520E03FEF4FE772
:1051C00057E40E94C50318164CF56B857C858D85C8
:1051D0009E8520E030E040E251E40E941F02DC01A5
:1051E000CB01BC01CD010E944900DC01CB019E83B3
:1051F0008D830FC088EC90E09C838B838B819C8196
:105200000197F1F79C838B838D819E8101979E830B
:105210008D838D819E81009769F714C06F81788599
:1052200089859A850E944900DC01CB019E838D838C
:105230008D819E819A83898389819A810197F1F773
:105240009A83898382E20E9466288CE00E94362835
:105250000E94A7278CE08F878F850E94662881E0B7
:105260000E94662886E00E9466282F960FB6F89462
:10527000DEBF0FBECDBFCF91DF910895DF93CF93F7
:10528000CDB7DEB781E00E946628CF91DF91089507
:10529000DF93CF9300D000D0CDB7DEB79C838B8354
:1052A0001A8219828B819C810097D9F00EC0898166
:1052B000282F30E08B819C81FC01E20FF31F80815D
:1052C0000E94862889818F5F89838981282F30E019
:1052D0008B819C81FC01E20FF31F8081882339F7C9
:1052E00002C082E08A838A810F900F900F900F9006
:1052F000CF91DF9108950F931F93DF93CF93CDB795
:10530000DEB760970FB6F894DEBF0FBECDBF6D87D6
:105310007E878F87988B8AE0FE013396DF01982F76
:105320001D929A95E9F71A828D859E85AF85B88979
:105330000097A105B10521F480E30E9486287BC077
:105340008D859E85AF85B889BB230CF054C08DE256
:105350000E9486288D859E85AF85B889B095A095D9
:10536000909581959F4FAF4FBF4F8D879E87AF8799
:10537000B88B41C08A81082F10E08D859E85AF854E
:10538000B8892AE030E040E050E0BC01CD010E9445
:10539000FE2FDC01CB01282FCE010396FC01E00F8C
:1053A000F11F20838A81482F50E08A81282F30E026
:1053B000CE010396FC01E20FF31F8081282F205DB0
:1053C000CE010396FC01E40FF51F20838D859E8599
:1053D000AF85B8892AE030E040E050E0BC01CD0163
:1053E0000E94FE2FDA01C9018D879E87AF87B88B97
:1053F0008A818F5F8A838D859E85AF85B8891816CF
:1054000019061A061B060CF4B5CF8A818983898197
:10541000882F90E09C0121503040CE010396FC0182
:10542000E20FF31F80810E94862889818150898341
:105430008981882361F760960FB6F894DEBF0FBEAE
:10544000CDBFCF91DF911F910F910895DF93CF933F
:10545000CDB7DEB7A4970FB6F894DEBF0FBECDBFB1
:105460009CA38BA380E2FE013396DF01982F1D924F
:105470009A95E9F71A8280E690E00E9448291A82FC
:1054800023C08BA19CA181709070882359F08A81E0
:10549000282F30E0CE010396FC01E20FF31F81E0DC
:1054A000808309C08A81282F30E0CE010396FC0159
:1054B000E20FF31F10828BA19CA1959587959CA369
:1054C0008BA38A818F5F8A838A818031D0F280E0CA
:1054D00061E00E94532B80E189838981882F90E0CD
:1054E0009C0121503040CE010396FC01E20FF31FD6
:1054F0008081882321F480E30E94862803C081E311
:105500000E9486288981815089838981882329F78F
:10551000A4960FB6F894DEBF0FBECDBFCF91DF913A
:105520000895DF93CF93CDB7DEB7A5970FB6F89464
:10553000DEBF0FBECDBF6D8F7E8F8F8F98A3CE0144
:1055400005969AA389A3E2E7F1E0FCA3EBA3F0E1BF
:10555000FDA3EBA1FCA100808BA19CA101969CA3C3
:105560008BA3E9A1FAA1008289A19AA101969AA32D
:1055700089A39DA191509DA3EDA1EE2351F71B821C
:1055800020C08D8D8F708A838D8D9E8DAF8DB8A13B
:10559000689413F8B595A795979587951694D1F7C4
:1055A0008D8F9E8FAF8FB8A38B81282F30E0CE01D7
:1055B0004596FC01E20FF31F8A8180838B818F5F08
:1055C0008B838B818830E8F283E690E00E94482943
:1055D00087E08C831AC08C81282F332727FD3095D4
:1055E000CE014596FC01E20FF31F808189838981FA
:1055F000282F30E0CE010596FC01E20FF31F8081D9
:105600000E9486288C8181508C838C8188231CF792
:10561000A5960FB6F894DEBF0FBECDBFCF91DF9138
:105620000895DF93CF93CDB7DEB727970FB6F894E1
:10563000DEBF0FBECDBF9C838B836D834E832F83D4
:105640008D81882F90E0880F991F880F991F880FF0
:10565000991F8A838A8180648A838A810E9466284E
:1056600019820EC08981282F30E08B819C81FC013A
:10567000E20FF31F80810E94862889818F5F8983D2
:105680008981883078F38E816F810E94532B8D81C0
:105690000E94862827960FB6F894DEBF0FBECDBFB6
:1056A000CF91DF910895DF93CF9300D000D0CDB795
:1056B000DEB78B836C831A828C81882319F48B81EB
:1056C000898309C08C81813021F48B81805C89833E
:1056D00002C081E08A8389818068898389810E94F0
:1056E00066288A810F900F900F900F90CF91DF91D5
:1056F0000895DF93CF9300D000D0CDB7DEB79A8363
:1057000089837C836B83E981FA818FEF9FEFAFEF11
:10571000BFEF80839183A283B383EB81FC818FEF02
:105720009FEFAFEFBFEF80839183A283B3830F908E
:105730000F900F900F90CF91DF910895EF92FF920D
:105740000F931F93DF93CF93CDB7DEB760970FB65C
:10575000F894DEBF0FBECDBF6D837E838F839887A5
:1057600029873A874B875C87ED86FE860F87188BE3
:105770008D819E81AF81B8850097A105B10599F40F
:105780008D859E85AF85B8899C01AD012150304043
:105790004040504089859A85AB85BC8528173907DC
:1057A0004A075B0799F089859A85AB85BC859C0182
:1057B000AD012F5F3F4F4F4F5F4F8D819E81AF8176
:1057C000B885281739074A075B0749F481E090E05C
:1057D000A0E0B0E089839A83AB83BC8304C01982C4
:1057E0001A821B821C8289819A81AB81BC81BC0197
:1057F000CD0160960FB6F894DEBF0FBECDBFCF913E
:10580000DF911F910F91FF90EF900895DF93CF9359
:10581000CDB7DEB728970FB6F894DEBF0FBECDBF69
:105820006D837E838F8398878D819E81AF81B885BC
:105830008F3F2FEF92072FEFA2072FEFB20749F408
:1058400081E090E0A0E0B0E089839A83AB83BC83E1
:1058500004C019821A821B821C8289819A81AB81C1
:10586000BC81BC01CD0128960FB6F894DEBF0FBEF7
:10587000CDBFCF91DF910895CF92DF92EF92FF924B
:105880000F931F93DF93CF93CDB7DEB762970FB619
:10589000F894DEBF0FBECDBF9E838D8378876F8364
:1058A00029873A874B875C871E870D87CF86D88AE2
:1058B000E98AFA8AED81FE8180819181A281B3819A
:1058C000EF81F8852081318142815381E984FA8416
:1058D0000B851C85BC01CD010E949E2BDC01CB01F8
:1058E00089839A83AB83BC8389819A81AB81BC8194
:1058F00081309105A105B10509F454C0ED81FE8107
:1059000080819181A281B3818F3F2FEF92072FEF8A
:10591000A2072FEFB20731F4ED81FE8110821182D0
:1059200012821382EF81F885208131814281538177
:1059300089859A85AB85BC850197A109B10928178E
:1059400039074A075B0739F4EF81F8851082118225
:10595000128213820FC0EF81F88580819181A2812C
:10596000B3810196A11DB11DEF81F88580839183DC
:10597000A283B383EF81F88580819181A281B38175
:105980009C01220F331F220F331F8D859E85FC0142
:10599000E20FF31F8F859889A989BA898083918343
:1059A000A283B38362960FB6F894DEBF0FBECDBF5D
:1059B000CF91DF911F910F91FF90EF90DF90CF90EB
:1059C0000895CF92DF92EF92FF920F931F93DF9390
:1059D000CF93CDB7DEB762970FB6F894DEBF0FBE98
:1059E000CDBF9E838D8378876F8329873A874B87C6
:1059F0005C871E870D87CF86D88AE98AFA8AED816F
:105A0000FE8180819181A281B381EF81F88520811F
:105A1000318142815381E984FA840B851C85BC0164
:105A2000CD010E949E2BDC01CB0189839A83AB833D
:105A3000BC8389819A81AB81BC8181309105A105AC
:105A4000B10569F48D819E816F81788529853A85BC
:105A50004B855C85ED85FE858F010E94922DED8141
:105A6000FE8180819181A281B3818F3F2FEF9207C8
:105A70002FEFA2072FEFB20731F4ED81FE811082E4
:105A8000118212821382EF81F88520813181428157
:105A9000538189859A85AB85BC850197A109B10998
:105AA000281739074A075B0739F4EF81F885108218
:105AB0001182128213820FC0EF81F885808191815B
:105AC000A281B3810196A11DB11DEF81F88580836C
:105AD0009183A283B383EF81F88580819181A28134
