:100000000C942A000C9447000C9447000C94470071
:100010000C94A2140C946F140C943C140C940914BA
:100020000C94D6130C94A3130C9470130C943D13DE
:100030000C9447000C9475090C94CC090C94230A79
:100040000C9447000C9447000C9447000C94470014
:100050000C94470011241FBECFE5D8E0DEBFCDBF12
:1000600010E0A0E6B0E0E4E6F3E402C005900D92F3
:10007000AE37B107D9F710E0AEE7B0E001C01D928E
:10008000A63BB107E1F70E94A3050C94B0210C94A4
:100090000000EF92FF920F931F937B018C0120E0F1
:1000A00030E040E05FE40E94490388238CF0C801FF
:1000B000B70120E030E040E05FE40E94C1010E940F
:1000C000A9039B01AC01205030404040504806C07D
:1000D000C801B7010E94A9039B01AC01B901CA0183
:1000E0001F910F91FF90EF900895A0E0B0E0EBE733
:1000F000F0E00C947921DC012B01FA019C91923003
:1001000008F439C1EB018881823008F433C194309E
:1001100069F4843009F02FC111969C91119789815F
:10012000981709F428C1A6E6B0E025C1843009F487
:1001300021C18230A9F4923009F01DC19A01AD01AC
:1001400088E0EA010990AE01E90109929E0181501F
:10015000C1F7E201898111969C918923818308C1AD
:10016000923009F407C112962D903C901397EB0141
:100170008A819B811496AD90BD90CD90DC901797AD
:10018000EC80FD800E811F819101281B390BB90184
:1001900037FF04C066277727621B730B6032710537
:1001A0000CF061C0121613066CF537014801062EDB
:1001B00004C096948794779467940A94D2F721E0C8
:1001C00030E040E050E004C0220F331F441F551FB1
:1001D0006A95D2F721503040404050402E213F21B7
:1001E00040235123211531054105510521F021E01E
:1001F00030E040E050E079018A01E628F72808293C
:1002000019293CC0232BD1F1260E371E350146019A
:10021000062E04C096948794779467940A94D2F734
:1002200021E030E040E050E004C0220F331F441FC3
:10023000551F6A95D2F721503040404050402A2146
:100240003B214C215D21211531054105510521F04E
:1002500021E030E040E050E059016A01A628B728CB
:10026000C828D9280BC0821593052CF01C01AA249C
:10027000BB24650103C0EE24FF24870111969C91E5
:10028000D20111968C91981709F445C0992339F041
:10029000A80197012A193B094C095D0906C0A6016E
:1002A00095012E193F09400B510B57FD08C01182D3
:1002B0003382228224833583468357831DC081E0A5
:1002C00081833382228288279927DC01821B930B4A
:1002D000A40BB50B84839583A683B7830DC0220F2F
:1002E000331F441F551F24833583468357838281E0
:1002F000938101979383828324813581468157813D
:10030000DA01C9010197A109B1098F5F9F4FAF4F72
:10031000BF4328F30BC0918333822282EA0CFB1C7B
:100320000C1D1D1DE482F5820683178383E0808304
:10033000248135814681578157FF1AC0C901AA27F8
:1003400097FDA095BA2F81709070A070B0705695EF
:10035000479537952795822B932BA42BB52B848318
:100360009583A683B7838281938101969383828349
:10037000DF0101C0D201CD01CDB7DEB7E2E10C94BF
:100380009521A0E2B0E0E7ECF1E00C9485216983CF
:100390007A838B839C832D833E834F835887E9E048
:1003A000EE2EF12CEC0EFD1ECE010196B7010E943F
:1003B000D2048E010F5E1F4FCE010596B8010E9438
:1003C000D2048A8991E089278A8BC701B801AE01DE
:1003D000475E5F4F0E9475000E94FD03A096E6E015
:1003E0000C94A121A0E2B0E0E8EFF1E00C948521AB
:1003F00069837A838B839C832D833E834F835887C5
:10040000F9E0EF2EF12CEC0EFD1ECE010196B701A6
:100410000E94D2048E010F5E1F4FCE010596B801D7
:100420000E94D204C701B801AE01475E5F4F0E942F
:1004300075000E94FD03A096E6E00C94A121A0E2C5
:10044000B0E0E5E2F2E00C94792169837A838B8352
:100450009C832D833E834F835887CE010196BE0136
:10046000675F7F4F0E94D204CE010596BE016F5E8A
:100470007F4F0E94D2049985923088F0898982301A
:10048000C8F0943019F4823051F404C0843029F457
:10049000923081F486E690E0C6C0923049F420E0C4
:1004A0009A858A89981321E02A87CE010996BBC0D4
:1004B000823049F420E09A858A89981321E02A8BBA
:1004C000CE014196B0C02D843E844F8458886D88FB
:1004D0007E888F88988CEE24FF248701AA24BB2471
:1004E000650140E050E060E070E0E0E0F0E0C10174
:1004F00081709070892BE9F0E60CF71C081D191D1E
:100500009A01AB012A0D3B1D4C1D5D1D80E090E062
:10051000A0E0B0E0E614F7040805190520F481E036
:1005200090E0A0E0B0E0BA01A901480F591F6A1F8E
:100530007B1FAA0CBB1CCC1CDD1C97FE08C081E0F5
:1005400090E0A0E0B0E0A82AB92ACA2ADB2A3196B6
:10055000E032F10549F0660C771C881C991C569412
:10056000479437942794C3CFFA85EA892B893C892D
:100570008B859C85280F391F2E5F3F4F17C0CA01FE
:1005800081709070892B61F016950795F794E79428
:1005900080E090E0A0E0B0E8E82AF92A0A2B1B2BC3
:1005A00076956795579547952F5F3F4F77FDE7CF36
:1005B0000CC0440F551F661F771F17FD4160EE0CDE
:1005C000FF1C001F111F21503040403090E05907A0
:1005D00090E0690790E4790760F32B8F3C8FDB0193
:1005E000CA018F779070A070B07080349105A1051A
:1005F000B10561F447FD0AC0E114F10401051105DC
:1006000029F0405C5F4F6F4F7F4F40781A8EFE1786
:1006100011F081E08A8F4D8F5E8F6F8F78A383E01A
:10062000898FCE0149960E94FD03A096E2E10C94C9
:100630009521A8E1B0E0EFE1F3E00C948521698316
:100640007A838B839C832D833E834F83588789E0F5
:10065000E82EF12CEC0EFD1ECE010196B7010E9492
:10066000D2048E010F5E1F4FCE010596B8010E9485
:10067000D2048985823040F08989823028F0C70110
:10068000B8010E944A0501C08FEF6896E6E00C941D
:10069000A121A8E1B0E0EFE4F3E00C9485216983A7
:1006A0007A838B839C832D833E834F83588789E095
:1006B000E82EF12CEC0EFD1ECE010196B7010E9432
:1006C000D2048E010F5E1F4FCE010596B8010E9425
:1006D000D2048985823040F08989823028F0C701B0
:1006E000B8010E944A0501C08FEF6896E6E00C94BD
:1006F000A121A8E1B0E0EFE7F3E00C948521698344
:100700007A838B839C832D833E834F83588789E034
:10071000E82EF12CEC0EFD1ECE010196B7010E94D1
:10072000D2048E010F5E1F4FCE010596B8010E94C4
:10073000D2048985823040F08989823028F0C7014F
:10074000B8010E944A0501C081E06896E6E00C9479
:10075000A121ACE0B0E0EFEAF3E00C9489216983D9
:100760007A838B839C83CE010196BE016B5F7F4FA2
:100770000E94D2048D81823061F1823050F1843048
:1007800021F48E81882351F12EC02F81388537FDC9
:1007900020C06E812F3131051CF06623F9F023C093
:1007A0008EE190E0821B930B29853A854B855C8511
:1007B00004C056954795379527958A95D2F76623B5
:1007C000B1F050954095309521953F4F4F4F5F4F79
:1007D0000EC020E030E040E050E009C02FEF3FEFD6
:1007E0004FEF5FE704C020E030E040E050E8B9019F
:1007F000CA012C96E2E00C94A521DF92EF92FF92C1
:100800000F931F93FC01E480F58006811781D1804E
:100810008081823048F480E090E0A0E1B0E0E82AF6
:10082000F92A0A2B1B2BA5C0843009F49FC0823003
:1008300021F4EE24FF24870105C0E114F104010531
:10084000110519F4E0E0F0E096C0628173819FEF3A
:10085000623879070CF05BC022E83FEF261B370BAC
:100860002A3131052CF020E030E040E050E02AC091
:10087000B801A701022E04C0769567955795479554
:100880000A94D2F781E090E0A0E0B0E004C0880FC5
:10089000991FAA1FBB1F2A95D2F70197A109B10979
:1008A0008E219F21A023B1230097A105B10521F03E
:1008B00081E090E0A0E0B0E09A01AB01282B392B59
:1008C0004A2B5B2BDA01C9018F779070A070B07052
:1008D00080349105A105B10539F427FF09C0205CDA
:1008E0003F4F4F4F5F4F04C0215C3F4F4F4F5F4F13
:1008F000E0E0F0E02030A0E03A07A0E04A07A0E402
:100900005A0710F0E1E0F0E079018A0127C0603871
:10091000710564F5FB01E158FF4FD801C7018F77DE
:100920009070A070B07080349105A105B10539F4C4
:10093000E7FE0DC080E490E0A0E0B0E004C08FE3EB
:1009400090E0A0E0B0E0E80EF91E0A1F1B1F17FFA1
:1009500005C016950795F794E794319687E01695AC
:100960000795F794E7948A95D1F705C0EE24FF2404
:100970008701EFEFF0E06E2F679566276795902F60
:100980009F77D794DD24D7948E2F8695492F462BB9
:10099000582F5D29B701CA011F910F91FF90EF9069
:1009A000DF900895FC01DB01408151812281622F9B
:1009B0006F7770E0221F2227221F9381892F880FD3
:1009C000822B282F30E0991F9927991F11969C930D
:1009D000119721153105A9F54115510561057105DD
:1009E00011F482E037C082E89FEF13969C938E93B8
:1009F00012979A01AB0167E0220F331F441F551F66
:100A00006A95D1F783E08C930DC0220F331F441FEA
:100A1000551F12968D919C911397019713969C9355
:100A20008E931297203080E0380780E0480780E4FA
:100A3000580758F314962D933D934D935C93179755
:100A400008952F3F310579F4411551056105710570
:100A500019F484E08C93089564FF03C081E08C93C3
:100A600012C01C9210C02F57304013963C932E9307
:100A7000129783E08C9387E0440F551F661F771F02
:100A80008A95D1F7706414964D935D936D937C9322
:100A9000179708951F93DC01FB019C91923008F495
:100AA00047C08081823008F443C0943051F41196DD
:100AB0001C91843099F58181682F70E0611B710968
:100AC0003FC0843021F0923031F48230B9F181811D
:100AD000882389F12DC011961C9111978230F1F075
:100AE00081811817D9F412962D913C911397828128
:100AF00093818217930794F028173907BCF0149656
:100B00008D919D910D90BC91A02D248135814681C0
:100B10005781281739074A075B0718F4112341F05A
:100B20000AC082179307A407B50740F4112319F0F0
:100B300061E070E005C06FEF7FEF02C060E070E041
:100B4000CB011F910895DF93CF93CDB7DEB7A19767
:100B50000FB6F894DEBF0FBECDBF0E9422150E94D3
:100B6000BF1D0E9476070E949C1B0E94471582E0D1
:100B70008F8784E0898B84E08A8B87E0888B88EE7E
:100B800093E00E94691288EE93E00E947B12CE01EE
:100B90000F960E942F0B82E08093A30083E0809346
:100BA000A40082E08093A2001092A60081E08093CE
:100BB000A70082E08093A5008EE790E02FE637E063
:100BC00061E0A9010E9431099E012F5D3F4F81E044
:100BD00063E0A9010E94061889A1882391F4CE013F
:100BE00043960E94D21B0E94571E80E060E00E9444
:100BF0006C208B899C89AD89BE89BC01CD010E9486
:100C0000941E80917E00863471F481E064E873E084
:100C10000E94CB0682E064E873E00E94CB0681E08C
:100C20000E942A0743C080917E00823471F481E0E3
:100C300064E873E00E94CB0682E064E873E00E94FF
:100C4000CB0682E00E942A0731C080917E00823567
:100C500071F481E064E873E00E94CB0682E064E80E
:100C600073E00E94CB0683E00E942A071FC0809198
:100C70007E008C3471F481E064E873E00E94CB065E
:100C800082E064E873E00E94CB0684E00E942A07B9
:100C90000DC081E060E070E00E94CB0682E060E081
:100CA00070E00E94CB0685E00E942A0780E090E079
:100CB000A8E4B2E48B879C87AD87BE876B857C8573
:100CC0008D859E8520E030E04AEF54E40E941F02AB
:100CD000DC01CB018F839887A987BA876F817885DC
:100CE00089859A8520E030E040E85FE30E9479033F
:100CF00088232CF481E090E09E838D833FC06F8138
:100D0000788589859A8520E03FEF4FE757E40E9478
:100D1000190318164CF56B857C858D859E8520E022
:100D200030E040E251E40E941F02DC01CB01BC0133
:100D3000CD010E944900DC01CB019E838D830FC051
:100D400088EC90E09C838B838B819C810197F1F7E9
:100D50009C838B838D819E8101979E838D838D8162
:100D60009E81009769F714C06F81788589859A857F
:100D70000E944900DC01CB019E838D838D819E8181
:100D80009A83898389819A810197F1F79A8389836C
:100D900010927E0011CFDF93CF9300D00F92CDB78A
:100DA000DEB789837B836A838981813029F48A81D4
:100DB0009B810E94691207C08981823021F48A8157
:100DC0009B810E947B120F900F900F90CF91DF912B
:100DD0000895DF93CF9300D0CDB7DEB789836A83C0
:100DE00089818130C1F48A81813029F482EA90E0DE
:100DF0000E9429192AC08A81823029F482EA90E06F
:100E00000E94541922C08A818530F9F482EA90E068
:100E10000E947F191AC089818230B9F48A81813099
:100E200029F485EA90E00E9454190FC08A8182302B
:100E300029F485EA90E00E94291907C08A8185304B
:100E400021F485EA90E00E947F190F900F90CF91D6
:100E5000DF910895DF93CF930F92CDB7DEB78983EB
:100E60008981813049F481E061E00E94E90682E0F5
:100E700061E00E94E9062FC08981823049F481E057
:100E800062E00E94E90682E062E00E94E90623C077
:100E90008981833049F481E062E00E94E90682E0C2
:100EA00061E00E94E90617C08981843049F481E03D
:100EB00061E00E94E90682E062E00E94E9060BC060
:100EC0008981853041F481E065E00E94E90682E095
:100ED00065E00E94E9060F90CF91DF910895DF93BE
:100EE000CF93CDB7DEB7CF91DF910895DF93CF9346
:100EF0000F92CDB7DEB71982AAE2B0E0EAE2F0E0E5
:100F0000808180618C93AAE2B0E0EAE2F0E0808127
:100F100088608C93ABE2B0E0EBE2F0E080818D7F03
:100F20008C938981897F8983898182608983898182
:100F300084608983AAE2B0E0EAE2F0E080818B7FFE
:100F40008C9389818F7B898389818F7E8983898135
:100F50008F7D89838981877F89838981806889835F
:100F6000E0E4F0E089818083E9E2F0E083E38083DC
:100F70000F90CF91DF910895DF93CF93CDB7DEB778
:100F800027970FB6F894DEBF0FBECDBF9F838E8329
:100F90001D8219821A821B821C8280918B008823F9
:100FA00029F080918D00813009F041C081E080936B
:100FB0008B000BC089819A81AB81BC810196A11DF8
:100FC000B11D89839A83AB83BC83EBE2F0E080811F
:100FD000829586958770882F90E081709070009739
:100FE00061F489819A81AB81BC81803A26E89207BD
:100FF00021E0A20720E0B207E8F289819A81AB8163
:10100000BC81803A26E8920721E0A20720E0B207DF
:1010100019F483E08D8304C0ECE2F0E08E818083DC
:1010200080918D00882329F410928B0002C084E007
:101030008D838D8127960FB6F894DEBF0FBECDBF8E
:10104000CF91DF910895DF93CF9300D00F92CDB76A
:10105000DEB79B838A8319828A819B81009701F185
:1010600080918C00882321F080918E008130A9F43A
:1010700081E080938C00EBE2F0E080818823DCF754
:10108000AA81BB81ECE2F0E080818C9380918E009C
:10109000882341F410928C0005C084E0898302C04B
:1010A00082E0898389810F900F900F90CF91DF911B
:1010B0000895DF93CF9300D000D000D0CDB7DEB736
:1010C0009D838C836E831B821A8219828C819D8101
:1010D000009779F180918B00882341F581E080931E
:1010E0008B0081E080938D00198217C02C813D8197
:1010F0008981882F90E0F901E80FF91F8081882FFE
:1011000090E00E94BC078A838A81882319F081E0DD
:101110008B8307C089818F5F898399818E8198171E
:1011200028F310928D0010928B0005C084E08B8311
:1011300002C082E08B838B8126960FB6F894DEBFC7
:101140000FBECDBFCF91DF910895DF93CF9300D035
:1011500000D000D0CDB7DEB79D838C836E831B8219
:101160001A8219828C819D81009759F180918C009F
:10117000882321F581E080938C0081E080938E00AC
:10118000198213C08981282F30E08C819D81820FC4
:10119000931F0E9423088A838A81882319F081E0A3
:1011A0008B8307C089818F5F898399818E8198178E
:1011B00048F310928E0010928C0005C084E08B835F
:1011C00002C082E08B838B8126960FB6F894DEBF37
:1011D0000FBECDBFCF91DF910895DF93CF9300D0A5
:1011E00000D000D0CDB7DEB79B838A836C835E834B
:1011F0004D8319828A819B81009739F18D819E816F
:10120000009719F180918B008823E1F481E08093AD
:101210008B008A819B8190938300809382008C81D4
:10122000809381008D819E819093800080937F00C8
:1012300010928400AAE2B0E0EAE2F0E080818062ED
:101240008C9305C084E0898302C082E08983898110
:1012500026960FB6F894DEBF0FBECDBFCF91DF91BB
:101260000895DF93CF9300D000D000D0CDB7DEB784
:101270009B838A836C835E834D8319828A819B81E1
:10128000009739F18D819E81009719F180918C0032
:101290008823E1F481E080938C008A819B81909384
:1012A0008900809388008C81809387008D819E8146
:1012B000909386008093850010928A00AAE2B0E0A5
:1012C000EAE2F0E0808180688C9305C084E0898345
:1012D00002C082E08983898126960FB6F894DEBF2A
:1012E0000FBECDBFCF91DF9108951F920F920FB621
:1012F0000F9211242F933F934F935F936F937F939C
:101300008F939F93AF93BF93EF93FF93DF93CF930D
:10131000CDB7DEB780918800909189009C018091C3
:101320008A00882F90E0D901A80FB91FECE2F0E005
:1013300080818C9380918A008F5F80938A00909146
:101340008A00809187009817A1F410928C00AAE27D
:10135000B0E0EAE2F0E080818F778C9380918500A5
:1013600090918600009729F0E0918500F091860029
:101370000995CF91DF91FF91EF91BF91AF919F912F
:101380008F917F916F915F914F913F912F910F902E
:101390000FBE0F901F9018951F920F920FB60F92CD
:1013A00011242F933F934F935F936F937F938F936A
:1013B0009F93AF93BF93EF93FF93DF93CF93CDB7FB
:1013C000DEB7ACE2B0E080918200909183009C0196
:1013D00080918400882F90E0F901E80FF91F808147
:1013E0008C93809184008F5F80938400909184001F
:1013F000809181009817A1F410928B00AAE2B0E0CE
:10140000EAE2F0E080818F7D8C9380917F00909163
:101410008000009729F0E0917F00F091800009950D
:10142000CF91DF91FF91EF91BF91AF919F918F91FC
:101430007F916F915F914F913F912F910F900FBED0
:101440000F901F9018951F920F920FB60F921124B4
:10145000DF93CF93CDB7DEB7CF91DF910F900FBE63
:101460000F901F901895DF93CF93CDB7DEB72797D6
:101470000FB6F894DEBF0FBECDBF9B838A8319825F
:101480008A819B81009709F4DEC080918F008823B8
:1014900009F0D6C081E080938F00EA81FB818181D1
:1014A000282F30E03F832E838E819F8181309105EC
:1014B00021F12E813F81223031052CF48E819F81D4
:1014C000009761F046C02E813F812230310521F125
:1014D0008E819F818330910571F13BC0A3E5B0E01F
:1014E000E3E5F0E080818F7B8C93A3E5B0E0E3E55A
:1014F000F0E08081877F8C932CC0A3E5B0E0E3E52A
:10150000F0E0808180648C93A3E5B0E0E3E5F0E057
:101510008081877F8C931DC0A3E5B0E0E3E5F0E018
:1015200080818F7B8C93A3E5B0E0E3E5F0E08081E0
:1015300088608C930EC0A3E5B0E0E3E5F0E0808125
:1015400080648C93A3E5B0E0E3E5F0E080818860FF
:101550008C93A3E5B0E0E3E5F0E080818F7C8C9391
:10156000EA81FB818181882329F0EA81FB818181E5
:101570008230E1F4EA81FB8182818430A0F4A3E52A
:10158000B0E0E3E5F0E08081282FEA81FB818281F1
:10159000882F90E082959295907F9827807F98275A
:1015A000822B8C933BC081E0898338C0EA81FB8128
:1015B0008181833029F0EA81FB818181813071F55D
:1015C000EA81FB818281282F30E03D832C838C814E
:1015D0009D818430910581F02C813D81253031053C
:1015E00099F08C819D810097B9F4E3E5F0E0A3E5E3
:1015F000B0E08C91808312C0A3E5B0E0E3E5F0E0B9
:10160000808180628C930AC0A3E5B0E0E3E5F0E05E
:10161000808180638C9302C081E08983A3E5B0E080
:10162000E3E5F0E08081887F8C93A3E5B0E0E3E51B
:10163000F0E09081EA81FB818081892B8C9305C049
:1016400084E0898302C082E08983898127960FB66E
:10165000F894DEBF0FBECDBFCF91DF910895DF9329
:10166000CF93CDB7DEB729970FB6F894DEBF0FBE84
:10167000CDBF9B838A8319828A819B81009709F45D
:1016800071C180919000882309F069C181E0809345
:101690009000AFE4B0E0EFE4F0E080818C7F8C93C9
:1016A000AEE4B0E0EEE4F0E08081877E8C93AFE4BE
:1016B000B0E0EFE4F0E08081982FEA81FB81818146
:1016C0008370892B8C93AEE4B0E0EEE4F0E080818F
:1016D000282FEA81FB81818186958695882F90E06D
:1016E00083709070880F991F880F991F880F991F1A
:1016F000822B8C93EA81FB818181282F30E039870E
:101700002887888599858C309105B4F4288539859A
:10171000253031050CF070C088859985843091059D
:10172000C4F428853985213031050CF065C08885E1
:101730009985009771F0FFC0288539852C303105D7
:1017400041F0888599850E978230910508F0F3C0A5
:1017500053C0EA81FB8182818430F0F4AFE4B0E0D1
:10176000EFE4F0E080818F738C93AFE4B0E0EFE4BE
:10177000F0E08081282FEA81FB818281882F90E030
:101780000024969587950794969587950794982FAA
:10179000802D822B8C9307C0EA81FB818281863069
:1017A00011F081E08983EA81FB8183818430D8F460
:1017B000AFE4B0E0EFE4F0E080818F7C8C93AFE4A5
:1017C000B0E0EFE4F0E08081282FEA81FB818381A3
:1017D000882F90E082959295907F9827807F982718
:1017E000822B8C93AAC0EA81FB818381863009F425
:1017F000A4C081E08983A1C0EA81FB818281282F76
:1018000030E03F832E838E819F818430910519F1D2
:101810002E813F81253031052CF48E819F810097E8
:1018200061F037C02E813F812530310519F18E815D
:101830009F818630910579F12CC0AFE4B0E0EFE4F0
:10184000F0E080818F738C93AFE4B0E0EFE4F0E0E0
:1018500080818C9320C0AFE4B0E0EFE4F0E08081C1
:101860008F738C93AFE4B0E0EFE4F0E080818068A8
:101870008C9311C0AFE4B0E0EFE4F0E080818F73AF
:101880008C93AFE4B0E0EFE4F0E08081806C8C9367
:1018900002C081E08983EA81FB818381282F30E0C7
:1018A0003D832C838C819D818430910519F12C819D
:1018B0003D81253031052CF48C819D81009761F0AC
:1018C00037C02C813D812530310519F18C819D81F6
:1018D0008630910591F12CC0AFE4B0E0EFE4F0E088
:1018E00080818F7C8C93AFE4B0E0EFE4F0E0808106
:1018F0008C9323C0AFE4B0E0EFE4F0E080818F7C14
:101900008C93AFE4B0E0EFE4F0E0808180628C93F0
:1019100014C0AFE4B0E0EFE4F0E080818F7C8C9302
:10192000AFE4B0E0EFE4F0E0808180638C9305C029
:1019300081E0898302C081E08983AEE4B0E0EEE417
:10194000F0E08081887F8C93AEE4B0E0EEE4F0E0DC
:101950009081EA81FB818081892B8C9305C084E092
:10196000898302C082E08983898129960FB6F89421
:10197000DEBF0FBECDBFCF91DF910895DF93CF9330
:10198000CDB7DEB727970FB6F894DEBF0FBECDBF39
:101990009B838A8319828A819B81009709F4DEC028
:1019A00080919100882309F0D6C081E08093910056
:1019B000EA81FB818181282F30E03F832E838E8155
:1019C0009F818130910521F12E813F8122303105A7
:1019D0002CF48E819F81009761F046C02E813F815B
:1019E0002230310521F18E819F818330910571F183
:1019F0003BC0A5E4B0E0E5E4F0E080818F7B8C9310
:101A0000A5E4B0E0E5E4F0E08081877F8C932CC012
:101A1000A5E4B0E0E5E4F0E0808180648C93A5E487
:101A2000B0E0E5E4F0E08081877F8C931DC0A5E401
:101A3000B0E0E5E4F0E080818F7B8C93A5E4B0E03A
:101A4000E5E4F0E0808188608C930EC0A5E4B0E00E
:101A5000E5E4F0E0808180648C93A5E4B0E0E5E407
:101A6000F0E0808188608C93A5E4B0E0E5E4F0E0EC
:101A700080818F7C8C93EA81FB818181882329F08E
:101A8000EA81FB8181818230E1F4EA81FB818281FC
:101A90008430A0F4A5E4B0E0E5E4F0E08081282FF4
:101AA000EA81FB818281882F90E082959295907FD8
:101AB0009827807F9827822B8C933BC081E0898375
:101AC00038C0EA81FB818181833029F0EA81FB8182
:101AD0008181813071F5EA81FB818281282F30E09C
:101AE0003D832C838C819D818430910581F02C81F4
:101AF0003D812530310599F08C819D810097B9F4A5
:101B0000E5E4F0E0A5E4B0E08C91808312C0A5E4A8
:101B1000B0E0E5E4F0E0808180628C930AC0A5E447
:101B2000B0E0E5E4F0E0808180638C9302C081E066
:101B30008983A5E4B0E0E5E4F0E08081887F8C93C0
:101B4000A5E4B0E0E5E4F0E09081EA81FB818081EA
:101B5000892B8C9305C084E0898302C082E089834D
:101B6000898127960FB6F894DEBF0FBECDBFCF9107
:101B7000DF910895DF93CF9300D000D000D0CDB790
:101B8000DEB79B838A836C8319828A819B8100974D
:101B900009F460C0A3E5B0E0E3E5F0E080818F7C6C
:101BA0008C93EA81FB818181882329F0EA81FB8182
:101BB00081818230C1F48C81843090F4A3E5B0E05F
:101BC000E3E5F0E08081282F8C81882F90E08295DA
:101BD0009295907F9827807F9827822B8C933CC08A
:101BE00081E0898339C0EA81FB818181833029F0DA
:101BF000EA81FB818181813079F58C81282F30E069
:101C00003E832D838D819E818430910581F02D81CD
:101C10003E812530310599F08D819E810097B9F480
:101C2000E3E5F0E0A3E5B0E08C91808315C0A3E587
:101C3000B0E0E3E5F0E0808180628C930DC0A3E525
:101C4000B0E0E3E5F0E0808180638C9305C081E043
:101C5000898302C082E08983898126960FB6F89431
:101C6000DEBF0FBECDBFCF91DF910895DF93CF933D
:101C7000CDB7DEB728970FB6F894DEBF0FBECDBF45
:101C80009B838A836C8319828A819B81009709F4E4
:101C9000A5C0EA81FB818181282F30E038872F831E
:101CA0008F8198858C309105ACF42F813885253053
:101CB00031050CF042C08F81988584309105BCF4C9
:101CC0002F81388521303105C4F58F8198850097A3
:101CD00071F081C02F8138852C30310541F08F8122
:101CE00098850E978230910508F075C026C08C81CA
:101CF0008430E0F4AFE4B0E0EFE4F0E080818F7393
:101D00008C93AFE4B0E0EFE4F0E08081282F8C8189
:101D1000882F90E00024969587950794969587954F
:101D20000794982F802D822B8C935AC08C818630FB
:101D300009F456C081E0898353C08C81282F30E09C
:101D40003E832D838D819E818430910519F12D81F3
:101D50003E81253031052CF48D819E81009761F004
:101D600037C02D813E812530310519F18D819E814D
:101D700086309105A9F12CC0AFE4B0E0EFE4F0E0CB
:101D800080818F738C93AFE4B0E0EFE4F0E080816A
:101D90008C9326C0AFE4B0E0EFE4F0E080818F7375
:101DA0008C93AFE4B0E0EFE4F0E0808180688C9346
:101DB00017C0AFE4B0E0EFE4F0E080818F738C9364
:101DC000AFE4B0E0EFE4F0E08081806C8C9308C079
:101DD00081E0898305C081E0898302C082E0898334
:101DE000898128960FB6F894DEBF0FBECDBFCF9184
:101DF000DF910895DF93CF93CDB7DEB728970FB665
:101E0000F894DEBF0FBECDBF9B838A836C8319829B
:101E10008A819B81009709F4A2C0EA81FB818181BC
:101E2000282F30E038872F838F8198858C3091055B
:101E3000ACF42F813885253031050CF03FC08F81FF
:101E4000988584309105BCF42F8138852130310587
:101E5000ACF58F819885009771F07EC02F81388511
:101E60002C30310541F08F8198850E978230910595
:101E700008F072C023C08C818430C8F4AFE4B0E0B5
:101E8000EFE4F0E080818F7C8C93AFE4B0E0EFE48E
:101E9000F0E08081282F8C81882F90E082959295A8
:101EA000907F9827807F9827822B8C935AC08C81B3
:101EB000863009F456C081E0898353C08C81282F75
:101EC00030E03E832D838D819E818430910519F110
:101ED0002D813E81253031052CF48D819E81009726
:101EE00061F037C02D813E812530310519F18D819A
:101EF0009E8186309105A9F12CC0AFE4B0E0EFE4FB
:101F0000F0E080818F7C8C93AFE4B0E0EFE4F0E010
:101F100080818C9326C0AFE4B0E0EFE4F0E08081F4
:101F20008F7C8C93AFE4B0E0EFE4F0E080818062DE
:101F30008C9317C0AFE4B0E0EFE4F0E080818F7CD9
:101F40008C93AFE4B0E0EFE4F0E0808180638C93A9
:101F500008C081E0898305C081E0898302C082E0F6
:101F60008983898128960FB6F894DEBF0FBECDBF56
:101F7000CF91DF910895DF93CF93CDB7DEB7289748
:101F80000FB6F894DEBF0FBECDBF9B838A836C83F0
:101F900019828A819B81009709F4CDC0EA81FB8177
:101FA0008181282F30E038872F838F819885813079
:101FB000910521F12F813885223031052CF48F8154
:101FC0009885009761F046C02F8138852230310511
:101FD00021F18F8198858330910571F13BC0A5E493
:101FE000B0E0E5E4F0E080818F7B8C93A5E4B0E085
:101FF000E5E4F0E08081877F8C932CC0A5E4B0E01D
:10200000E5E4F0E0808180648C93A5E4B0E0E5E451
:10201000F0E08081877F8C931DC0A5E4B0E0E5E40B
:10202000F0E080818F7B8C93A5E4B0E0E5E4F0E004
:10203000808188608C930EC0A5E4B0E0E5E4F0E018
:10204000808180648C93A5E4B0E0E5E4F0E08081D9
:1020500088608C93A5E4B0E0E5E4F0E080818F7CBB
:102060008C93EA81FB818181882329F0EA81FB81BD
:1020700081818230C1F48C81843090F4A5E4B0E099
:10208000E5E4F0E08081282F8C81882F90E0829514
:102090009295907F9827807F9827822B8C9339C0C8
:1020A00081E0898336C0EA81FB818181833029F018
:1020B000EA81FB818181813061F58C81282F30E0BC
:1020C0003E832D838D819E818430910581F02D8109
:1020D0003E812530310599F08D819E810097B9F4BC
:1020E000E5E4F0E0A5E4B0E08C91808312C0A5E4C3
:1020F000B0E0E5E4F0E0808180628C930AC0A5E462
:10210000B0E0E5E4F0E0808180638C9302C081E080
:102110008983A5E4B0E0E5E4F0E08081887F8C93DA
:10212000A5E4B0E0E5E4F0E09081EA81FB81808104
:10213000892B8C9302C082E08983898128960FB60F
:10214000F894DEBF0FBECDBFCF91DF910895DF932E
:10215000CF9300D000D0CDB7DEB78A8319828A81B1
:10216000282F30E03C832B838B819C818330910529
:1021700009F442C02B813C81243031057CF48B81F1
:102180009C818130910541F12B813C8122303105C8
:102190005CF58B819C810097B9F056C02B813C8106
:1021A00025303105C9F18B819C818530910564F121
:1021B0002B813C812630310509F43EC08B819C8106
:1021C0008730910589F140C0A9E5B0E0E9E5F0E08C
:1021D000808181608C933AC0A9E5B0E0E9E5F0E048
:1021E000808182608C9332C0A9E5B0E0E9E5F0E03F
:1021F000808184608C932AC0A9E5B0E0E9E5F0E035
:10220000808180618C9322C0A9E5B0E0E9E5F0E02F
:10221000808188608C931AC0A9E5B0E0E9E5F0E020
:10222000808180628C9312C0A9E5B0E0E9E5F0E01E
:10223000808180688C930AC0A9E5B0E0E9E5F0E010
:10224000808180648C9302C081E0898389810F90B2
:102250000F900F900F90CF91DF910895DF93CF9360
:1022600000D000D0CDB7DEB78A8319828A81282FAB
:1022700030E03C832B838B819C818330910509F472
:1022800042C02B813C81243031057CF48B819C81C0
:102290008130910541F12B813C81223031055CF583
:1022A0008B819C810097B9F056C02B813C812530F1
:1022B0003105C9F18B819C818530910564F12B81B9
:1022C0003C812630310509F43EC08B819C818730EA
:1022D000910589F140C0A9E5B0E0E9E5F0E0808131
:1022E0008E7F8C933AC0A9E5B0E0E9E5F0E080810B
:1022F0008D7F8C9332C0A9E5B0E0E9E5F0E0808104
:102300008B7F8C932AC0A9E5B0E0E9E5F0E08081FD
:102310008F7E8C9322C0A9E5B0E0E9E5F0E08081F2
:10232000877F8C931AC0A9E5B0E0E9E5F0E08081F1
:102330008F7D8C9312C0A9E5B0E0E9E5F0E08081E3
:102340008F778C930AC0A9E5B0E0E9E5F0E08081E1
:102350008F7B8C9302C081E0898389810F900F90DD
:102360000F900F90CF91DF910895DF93CF9300D01E
:1023700000D0CDB7DEB78A8319828A81282F30E05A
:102380003C832B838B819C818130910599F02B813B
:102390003C8122303105C1F08B819C810097F1F4A2
:1023A00010928F00A3E5B0E0E3E5F0E08081887F44
:1023B0008C9316C010929000AEE4B0E0EEE4F0E032
:1023C0008081887F8C930CC010929100A5E4B0E0CE
:1023D000E5E4F0E08081887F8C9302C081E089830E
:1023E00089810F900F900F900F90CF91DF910895FA
:1023F000DF93CF9300D000D0CDB7DEB78A837C8344
:102400006B8319828B819C81009769F08A81882F68
:1024100090E0880F991FFC01EE56FF4F8B819C8145
:102420009183808302C082E0898389810F900F901D
:102430000F900F90CF91DF910895DF93CF930F927C
:10244000CDB7DEB78983ECE5F0E0898180830F901A
:10245000CF91DF910895DF93CF930F92CDB7DEB781
:102460008983E2E5F0E0898180830F90CF91DF914D
:102470000895DF93CF93CDB7DEB7E2E5F0E080813A
:10248000CF91DF910895DF93CF930F92CDB7DEB751
:102490008983E3E4F0E0898180830F90CF91DF911D
:1024A0000895DF93CF930F92CDB7DEB78983E4E42D
:1024B000F0E0898180830F90CF91DF910895DF93C1
:1024C000CF93CDB7DEB7E4E4F0E08081CF91DF9128
:1024D0000895DF93CF9300D0CDB7DEB79A83898379
:1024E000EAE4F0E089819A81918380830F900F90D4
:1024F000CF91DF910895DF93CF9300D0CDB7DEB7B2
:102500009A838983E8E4F0E089819A8191838083CA
:102510000F900F90CF91DF910895DF93CF9300D06C
:10252000CDB7DEB79A838983ECE4F0E089819A81A4
:10253000918380830F900F90CF91DF910895DF9367
:10254000CF9300D0CDB7DEB79A838983E6E4F0E07D
:1025500089819A81918380830F900F90CF91DF9131
:102560000895DF93CF93CDB7DEB7ECE4F0E0808140
:102570009181CF91DF910895DF93CF93CDB7DEB7EF
:10258000E6E4F0E080819181CF91DF910895DF93BF
:10259000CF9300D000D0CDB7DEB78A8319828A816D
:1025A000282F30E03C832B838B819C81009731F076
:1025B0002B813C812130310549F010C0AEE4B0E000
:1025C000EEE4F0E0808180648C930AC0AEE4B0E079
:1025D000EEE4F0E080818F7B8C9302C081E0898300
:1025E00089810F900F900F900F90CF91DF910895F8
:1025F000DF93CF93CDB7DEB7A1E4B0E0E1E4F0E044
:10260000808188608C93CF91DF910895DF93CF9381
:10261000CDB7DEB7A1E4B0E0E1E4F0E0808188610D
:102620008C93A1E4B0E0E1E4F0E08081877F8C93BB
:10263000CF91DF910895DF93CF9300D0CDB7DEB770
:102640008A8319828A81883080F4A1E4B0E0E1E4D1
:10265000F0E08081887F8C93A1E4B0E0E1E4F0E0D9
:1026600090818A81892B8C9302C081E08983898142
:102670000F900F90CF91DF9108951F920F920FB698
:102680000F9211242F933F934F935F936F937F93F8
:102690008F939F93AF93BF93EF93FF93DF93CF936A
:1026A000CDB7DEB78091920090919300009729F00A
:1026B000E0919200F09193000995CF91DF91FF9105
:1026C000EF91BF91AF919F918F917F916F915F91AA
:1026D0004F913F912F910F900FBE0F901F90189523
:1026E0001F920F920FB60F9211242F933F934F9387
:1026F0005F936F937F938F939F93AF93BF93EF936A
:10270000FF93DF93CF93CDB7DEB780919400909184
:102710009500009729F0E0919400F09195000995BB
:10272000CF91DF91FF91EF91BF91AF919F918F91E9
:102730007F916F915F914F913F912F910F900FBEBD
:102740000F901F9018951F920F920FB60F921124A1
:102750002F933F934F935F936F937F938F939F93A9
:10276000AF93BF93EF93FF93DF93CF93CDB7DEB7D4
:102770008091960090919700009729F0E091960043
:10278000F09197000995CF91DF91FF91EF91BF9163
:10279000AF919F918F917F916F915F914F913F91F9
:1027A0002F910F900FBE0F901F9018951F920F92B0
:1027B0000FB60F9211242F933F934F935F936F9314
:1027C0007F938F939F93AF93BF93EF93FF93DF9389
:1027D000CF93CDB7DEB780919A0090919B00009780
:1027E00029F0E0919A00F0919B000995CF91DF913B
:1027F000FF91EF91BF91AF919F918F917F916F91D9
:102800005F914F913F912F910F900FBE0F901F90AE
:1028100018951F920F920FB60F9211242F933F938A
:102820004F935F936F937F938F939F93AF93BF93D8
:10283000EF93FF93DF93CF93CDB7DEB780919800EE
:1028400090919900009729F0E0919800F0919900FB
:102850000995CF91DF91FF91EF91BF91AF919F913A
:102860008F917F916F915F914F913F912F910F9039
:102870000FBE0F901F9018951F920F920FB60F92D8
:1028800011242F933F934F935F936F937F938F9375
:102890009F93AF93BF93EF93FF93DF93CF93CDB706
:1028A000DEB780919C0090919D00009729F0E09107
:1028B0009C00F0919D000995CF91DF91FF91EF91E0
:1028C000BF91AF919F918F917F916F915F914F9148
:1028D0003F912F910F900FBE0F901F9018951F9250
:1028E0000F920FB60F9211242F933F934F935F9344
:1028F0006F937F938F939F93AF93BF93EF93FF93C8
:10290000DF93CF93CDB7DEB780919E0090919F006B
:10291000009729F0E0919E00F0919F000995CF91DA
:10292000DF91FF91EF91BF91AF919F918F917F9137
:102930006F915F914F913F912F910F900FBE0F902C
:102940001F9018951F920F920FB60F9211242F937C
:102950003F934F935F936F937F938F939F93AF9327
:10296000BF93EF93FF93DF93CF93CDB7DEB7809103
:10297000A0009091A100009729F0E091A000F091B3
:10298000A1000995CF91DF91FF91EF91BF91AF9198
:102990009F918F917F916F915F914F913F912F9177
:1029A0000F900FBE0F901F901895DF93CF93CDB768
:1029B000DEB7ADE2B0E0EDE2F0E080818F7D8C9398
:1029C000ADE2B0E0EDE2F0E0808180618C93ADE2B9
:1029D000B0E0EDE2F0E08081877F8C93ADE2B0E083
:1029E000EDE2F0E080818C7F8C93ADE2B0E0EDE22F
:1029F000F0E080818C93AEE2B0E0EEE2F0E0808126
:102A00008E7F8C93ADE2B0E0EDE2F0E080818064F7
:102A10008C93CF91DF910895DF93CF930F92CDB731
:102A2000DEB78983EFE2F0E089818083EEE2F0E0B7
:102A300080818823DCF7EFE2F0E080810F90CF9176
:102A4000DF910895DF93CF93CDB7DEB7EAE3F0E0EF
:102A50008FEF8083E7E3F0E087EB8083E4E3F0E04F
:102A60008FEF8083E1E3F0E082EB8083EBE3F0E043
:102A70001082E8E3F0E08FEB8083E5E3F0E0108282
:102A8000E2E3F0E08FEF8083CF91DF910895DF9351
:102A9000CF93CDB7DEB77894CF91DF910895DF93D0
:102AA000CF93CDB7DEB7F894CF91DF910895DF9340
:102AB000CF93CDB7DEB728970FB6F894DEBF0FBE21
:102AC000CDBF8A836B834C8319828B81883008F059
:102AD000F4C08C81813009F072C08A81282F30E0E7
:102AE00038872F838F8198858130910549F12F8117
:102AF0003885223031052CF48F819885009761F05C
:102B00005BC02F8138852230310571F18F81988526
:102B100083309105E9F150C0AAE3B0E0EAE3F0E0C8
:102B20008081482F8B81282F30E081E090E0022EB9
:102B300002C0880F991F0A94E2F7842B8C93BFC0C0
:102B4000A7E3B0E0E7E3F0E08081482F8B81282FF6
:102B500030E081E090E0022E02C0880F991F0A94B5
:102B6000E2F7842B8C93ABC0A4E3B0E0E4E3F0E0A5
:102B70008081482F8B81282F30E081E090E0022E69
:102B800002C0880F991F0A94E2F7842B8C9397C098
:102B9000A1E3B0E0E1E3F0E08081482F8B81282FB2
:102BA00030E081E090E0022E02C0880F991F0A9465
:102BB000E2F7842B8C9383C081E0898380C08C8171
:102BC000882309F077C08A81282F30E03E832D8347
:102BD0008D819E818130910559F12D813E81223078
:102BE00031052CF48D819E81009769F060C02D81A4
:102BF0003E812230310589F18D819E81833091059E
:102C000009F440C054C0AAE3B0E0EAE3F0E08081F8
:102C1000482F8B81282F30E081E090E0022E02C007
:102C2000880F991F0A94E2F7809584238C9347C0FC
:102C3000A7E3B0E0E7E3F0E08081482F8B81282F05
:102C400030E081E090E0022E02C0880F991F0A94C4
:102C5000E2F7809584238C9332C0A4E3B0E0E4E3F0
:102C6000F0E08081482F8B81282F30E081E090E0D8
:102C7000022E02C0880F991F0A94E2F780958423E0
:102C80008C931DC0A1E3B0E0E1E3F0E08081482F28
:102C90008B81282F30E081E090E0022E02C0880F67
:102CA000991F0A94E2F7809584238C9308C081E0F1
:102CB000898305C081E0898302C081E0898389819D
:102CC00028960FB6F894DEBF0FBECDBFCF91DF912F
:102CD0000895DF93CF93CDB7DEB728970FB6F8945A
:102CE000DEBF0FBECDBF8A836B834C8319828B817D
:102CF000883008F0F4C08C81813009F072C08A817C
:102D0000282F30E038872F838F8198858130910577
:102D100049F12F813885223031052CF48F81988537
:102D2000009761F05BC02F8138852230310571F149
:102D30008F81988583309105E9F150C0ABE3B0E015
:102D4000EBE3F0E08081482F8B81282F30E081E099
:102D500090E0022E02C0880F991F0A94E2F7842B9C
:102D60008C93BFC0A8E3B0E0E8E3F0E08081482F97
:102D70008B81282F30E081E090E0022E02C0880F86
:102D8000991F0A94E2F7842B8C93ABC0A5E3B0E0C3
:102D9000E5E3F0E08081482F8B81282F30E081E04F
:102DA00090E0022E02C0880F991F0A94E2F7842B4C
:102DB0008C9397C0A2E3B0E0E2E3F0E08081482F7B
:102DC0008B81282F30E081E090E0022E02C0880F36
:102DD000991F0A94E2F7842B8C9383C081E0898346
:102DE00080C08C81882309F077C08A81282F30E049
:102DF0003E832D838D819E818130910559F12D81F6
:102E00003E81223031052CF48D819E81009769F03E
:102E100060C02D813E812230310589F18D819E81F6
:102E20008330910509F440C054C0ABE3B0E0EBE35C
:102E3000F0E08081482F8B81282F30E081E090E006
:102E4000022E02C0880F991F0A94E2F7809584230E
:102E50008C9347C0A8E3B0E0E8E3F0E08081482F1E
:102E60008B81282F30E081E090E0022E02C0880F95
:102E7000991F0A94E2F7809584238C9332C0A5E3CE
:102E8000B0E0E5E3F0E08081482F8B81282F30E02F
:102E900081E090E0022E02C0880F991F0A94E2F7A9
:102EA000809584238C931DC0A2E3B0E0E2E3F0E0C0
:102EB0008081482F8B81282F30E081E090E0022E26
:102EC00002C0880F991F0A94E2F7809584238C939F
:102ED00008C081E0898305C081E0898302C081E068
:102EE0008983898128960FB6F894DEBF0FBECDBFC7
:102EF000CF91DF910895DF93CF9300D000D00F9250
:102F0000CDB7DEB78A836B8319828B81883008F056
:102F100072C08A81282F30E03D832C838C819D8173
:102F20008130910549F12C813D81223031052CF40D
:102F30008C819D81009761F05BC02C813D812230A6
:102F4000310571F18C819D8183309105E9F150C08B
:102F5000ABE3B0E0EBE3F0E08081482F8B81282FDA
:102F600030E081E090E0022E02C0880F991F0A94A1
:102F7000E2F784278C9341C0A8E3B0E0E8E3F0E0F7
:102F80008081482F8B81282F30E081E090E0022E55
:102F900002C0880F991F0A94E2F784278C932DC0F2
:102FA000A5E3B0E0E5E3F0E08081482F8B81282F96
:102FB00030E081E090E0022E02C0880F991F0A9451
:102FC000E2F784278C9319C0A2E3B0E0E2E3F0E0DB
:102FD0008081482F8B81282F30E081E090E0022E05
:102FE00002C0880F991F0A94E2F784278C9305C0CA
:102FF00081E0898302C081E0898389810F900F90ED
:103000000F900F900F90CF91DF910895DF93CF93A2
:10301000CDB7DEB727970FB6F894DEBF0FBECDBF92
:103020008A836B835D834C8319828B81883008F09F
:1030300074C08A81282F30E03F832E834E815F81C8
:103040004130510559F18E819F818230910534F4D0
:103050002E813F812115310569F05CC04E815F8171
:103060004230510579F18E819F818330910509F4B9
:103070003DC050C0E9E3F0E08081282F30E08B8133
:10308000882F90E0A90102C0559547958A95E2F7EF
:10309000CA018170EC81FD81808341C0E6E3F0E0EC
:1030A0008081282F30E08B81882F90E0A90102C019
:1030B000559547958A95E2F7CA018170EC81FD81AB
:1030C00080832DC0E3E3F0E08081282F30E08B8106
:1030D000882F90E0A90102C0559547958A95E2F79F
:1030E000CA018170EC81FD81808319C0E0E3F0E0CA
:1030F0008081282F30E08B81882F90E0A90102C0C9
:10310000559547958A95E2F7CA018170EC81FD815A
:10311000808305C081E0898302C081E08983898141
:1031200027960FB6F894DEBF0FBECDBFCF91DF91CB
:103130000895DF93CF9300D000D00F92CDB7DEB7C4
:103140008A836B8319828A81282F30E03D832C8308
:103150008C819D8181309105D1F02C813D8122307F
:1031600031052CF48C819D81009761F01FC02C816A
:103170003D812230310581F08C819D818330910524
:1031800081F014C0EAE3F0E08B81808311C0E7E3B3
:10319000F0E08B8180830CC0E4E3F0E08B818083DE
:1031A00007C0E1E3F0E08B81808302C081E0898386
:1031B00089810F900F900F900F900F90CF91DF911A
:1031C0000895DF93CF9300D000D00F92CDB7DEB734
:1031D0008A836B8319828A81282F30E03D832C8378
:1031E0008C819D8181309105D1F02C813D812230EF
:1031F00031052CF48C819D81009761F01FC02C81DA
:103200003D812230310581F08C819D818330910593
:1032100081F014C0EBE3F0E08B81808311C0E8E320
:10322000F0E08B8180830CC0E5E3F0E08B8180834C
:1032300007C0E2E3F0E08B81808302C081E08983F4
:1032400089810F900F900F900F900F90CF91DF9189
:103250000895DF93CF9300D00F92CDB7DEB79B8355
:103260008A8319828A819B810097A9F0EA81FB8178
:103270008081EA81FB819181692F40E00E9469167B
:10328000EA81FB818081EA81FB819281692F41E0A3
:103290000E94691602C082E0898389810F900F9095
:1032A0000F90CF91DF910895DF93CF9300D00F92CD
:1032B000CDB7DEB79B838A8319828A819B81009771
:1032C000A9F0EA81FB818081EA81FB819281692FEB
:1032D00040E00E946916EA81FB818081EA81FB81DE
:1032E0009181692F41E00E94691602C082E08983C2
:1032F00089810F900F900F90CF91DF910895DF9308
:10330000CF9300D00F92CDB7DEB79B838A8319820B
:103310008A819B810097A9F0EA81FB818081EA8103
:10332000FB819281692F40E00E946916EA81FB814E
:103330008081EA81FB819181692F40E00E946916BA
:1033400002C082E0898389810F900F900F90CF9106
:10335000DF910895DF93CF930F92CDB7DEB78983C6
:103360008981813031F481E064E040E00E94691697
:1033700008C08981882329F481E064E041E00E944B
:1033800069160F90CF91DF910895DF93CF9300D00E
:10339000CDB7DEB78A8381E00E94AA1983E00E943C
:1033A0000C158A810E940C1580E00E940C158983FF
:1033B00080E00E94AA1989810F900F90CF91DF9130
:1033C0000895DF93CF9300D0CDB7DEB789836A83AA
:1033D00081E00E94AA1982E00E940C1589810E9456
:1033E0000C158A810E940C1580E00E94AA190F908A
:1033F0000F90CF91DF910895DF93CF9300D00F927C
:10340000CDB7DEB789836A834B838AE269810E94E4
:10341000E11989E26A810E94E11988E26B810E94C8
:10342000E1190F900F900F90CF91DF910895DF93E6
:10343000CF93CDB7DEB781E00E94AA1980EC0E943D
:103440000C1580E00E94AA19CF91DF910895DF93B7
:10345000CF9300D00F92CDB7DEB789836A834B83B9
:1034600081E00E94AA1985E00E940C1589810E94C2
:103470000C158A810E940C158B810E940C1580E02E
:103480000E94AA190F900F900F90CF91DF9108958D
:10349000DF93CF930F92CDB7DEB789838981982FC1
:1034A0009295990F907E8FE060EE492F0E94271A27
:1034B0008EE00E94C519982F9295969597708981F4
:1034C0009817B1F70F90CF91DF910895DF93CF93C5
:1034D000CDB7DEB70E94D5140E94171A8FE064E8BA
:1034E0000E94E1198EE00E94C51982958695877029
:1034F0008430C1F780E861EB45E00E94FC1980E070
:103500000E94481ACF91DF910895CF92DF92EF92F7
:10351000FF920F931F93DF93CF93CDB7DEB72F9713
:103520000FB6F894DEBF0FBECDBFCA82DB82EC823D
:10353000FD820E831F83288739874A875B876C87C4
:103540007D878E879F8781E00E94AA1982E00E9472
:103550000C1580E30E940C1583E00E940C158A81F3
:103560009B81AC81BD81689412F8B695A79597951B
:1035700087951694D1F70E940C158A819B81AC81A6
:10358000BD818295880F807E0E940C1580E00E948C
:103590000C1580E00E940C158E85282F8F85882FB2
:1035A00090E00024969587950794969587950794C3
:1035B000982F802D822B0E940C1519820EC08981B4
:1035C000282F30E0CE010696FC01E20FF31F808128
:1035D0000E940C1589818F5F89839E858981891757
:1035E00070F380E00E94AA1981E00E94AA1981E884
:1035F0000E940C1580E00E94AA192F960FB6F8942D
:10360000DEBF0FBECDBFCF91DF911F910F91FF9015
:10361000EF90DF90CF900895DF93CF930F92CDB7C7
:10362000DEB789838981982F990F990F80E664E02E
:10363000492F0E94271A0F90CF91DF910895DF93B1
:10364000CF9300D000D000D0CDB7DEB789834A83B6
:103650005B836C837D832E8381E00E94AA1982E0C4
:103660000E940C1589810E940C158E81882309F413
:1036700043C08A819B81AC81BD81689412F8B69564
:10368000A795979587951694D1F70E940C158A8176
:10369000282F2295220F207E8A819B81AC81BD81BB
:1036A000072E7BE1B695A795979587957A95D1F7E3
:1036B000702D822B88600E940C158A819B81AC81C1
:1036C000BD81072E73E1B695A795979587957A9555
:1036D000D1F7702D0E940C158A819B81AC81BD8130
:1036E000072E7BE0B695A795979587957A95D1F7A4
:1036F000702D0E940C1514C08A819B81AC81BD8104
:10370000689412F8B695A795979587951694D1F772
:103710000E940C158A818295880F807E0E940C156C
:1037200080E00E94AA1926960FB6F894DEBF0FBE5D
:10373000CDBFCF91DF910895DF93CF93CDB7DEB7A3
:103740000E94D5140E94171A8FE064E80E94E119C4
:103750008EE00E94C5198295869587708430C1F7E6
:1037600080E861EB45E00E94FC1980E240E050E017
:1037700060E070E021E00E941F1B84E240E050E026
:1037800060E070E021E00E941F1B81E00E940C1BA2
:103790008BE261E00E94E11980E00E94481ACF911B
:1037A000DF9108950F931F93DF93CF93CDB7DEB7CB
:1037B00067970FB6F894DEBF0FBECDBF9A8B898B8B
:1037C0008EE0FE013396DF01982F1D929A95E9F75E
:1037D0001A8281E00E94AA1983E00E940C1580E6FB
:1037E0000E940C151A820DC08A81082F10E080E01B
:1037F0000E940C15F801E855FF4F80838A818F5F86
:103800008A838A818E3080F380E00E94AA198CE23C
:1038100060E00E94E1198091A900882F90E0A0E06B
:10382000B0E08B839C83AD83BE838B819C81AD8113
:10383000BE81880F991FAA1FBB1F880F991FAA1F3F
:10384000BB1F880F991FAA1FBB1F8B839C83AD834F
:10385000BE838091AA0089832B813C814D815E814A
:103860008981829586958770882F90E0A0E0B0E0EE
:10387000822B932BA42BB52B8B839C83AD83BE8390
:103880008091AD008F708F871A8214C08A81482F73
:1038900050E08A81882F90E00696FC01E855FF4FA2
:1038A0002081CE010796FC01E40FF51F20838A8159
:1038B0008F5F8A838A81883048F38091A80086953B
:1038C000869586958170888BA989BA89BC8BAB8BCC
:1038D000FE013396FE8BED8BFEE0FF8BAD89BE893A
:1038E0000C90ED89FE893196FE8BED8BAB89BC89FE
:1038F0000C92EB89FC893196FC8BEB8BFF89F150A4
:10390000FF8B8F89882351F789899A8967960FB62B
:10391000F894DEBF0FBECDBFCF91DF911F910F9105
:1039200008950F931F93DF93CF930F92CDB7DEB718
:1039300081E00E94AA1983E00E940C1580E60E9493
:103940000C1519820DC08981082F10E080E00E94BB
:103950000C15F801E855FF4F808389818F5F8983BB
:1039600089818E3080F380E00E94AA198CE260E0A9
:103970000E94E1190F90CF91DF911F910F9108954F
:10398000DF93CF93CDB7DEB72E970FB6F894DEBF97
:103990000FBECDBF80E062E041E00E94691680E08A
:1039A00090E0A0E0B0E48B879C87AD87BE876B85F5
:1039B0007C858D859E8520E030E04AEF54E40E94AE
:1039C0001F02DC01CB018F839887A987BA876F819B
:1039D000788589859A8520E030E040E85FE30E94A1
:1039E000790388232CF481E090E09E838D833FC08F
:1039F0006F81788589859A8520E03FEF4FE757E40E
:103A00000E94190318164CF56B857C858D859E8563
:103A100020E030E040E251E40E941F02DC01CB01D3
:103A2000BC01CD010E944900DC01CB019E838D8346
:103A30000FC088EC90E09C838B838B819C810197E5
:103A4000F1F79C838B838D819E8101979E838D836B
:103A50008D819E81009769F714C06F817885898573
:103A60009A850E944900DC01CB019E838D838D8164
:103A70009E819A83898389819A810197F1F79A833C
:103A8000898380E062E040E00E9469162E960FB6BE
:103A9000F894DEBF0FBECDBFCF91DF910895DF93C5
:103AA000CF930F92CDB7DEB789838981982F91701C
:103AB00080E063E0492F0E94691689818695982FDE
:103AC000917080E064E0492F0E9469168981869593
:103AD0008695982F917080E065E0492F0E946916C5
:103AE0008981869586958695982F917080E066E00D
:103AF000492F0E9469160F90CF91DF910895DF93AF
:103B0000CF930F92CDB7DEB7898380E060E040E0CD
:103B10000E94691680E061E040E00E946916898198
:103B200082958F700E944F1D0E94C01C89810E9447
:103B30004F1D0E94C01C0F90CF91DF910895DF931D
:103B4000CF930F92CDB7DEB7898380E060E041E08C
:103B50000E94691680E061E040E00E946916898158
:103B600082958F700E944F1D0E94C01C89810E9407
:103B70004F1D0E94C01C0F90CF91DF910895DF93DD
:103B8000CF93CDB7DEB72F970FB6F894DEBF0FBE39
:103B9000CDBF80E090E0A0E2B2E48B879C87AD8748
:103BA000BE876B857C858D859E8520E030E04AEF61
:103BB00054E40E941F02DC01CB018F839887A98700
:103BC000BA876F81788589859A8520E030E040E862
:103BD0005FE30E94790388232CF481E090E09E83C8
:103BE0008D833FC06F81788589859A8520E03FEF7E
:103BF0004FE757E40E94190318164CF56B857C8536
:103C00008D859E8520E030E040E251E40E941F0255
:103C1000DC01CB01BC01CD010E944900DC01CB01DC
:103C20009E838D830FC088EC90E09C838B838B8177
:103C30009C810197F1F79C838B838D819E810197F5
:103C40009E838D838D819E81009769F714C06F815B
:103C5000788589859A850E944900DC01CB019E8385
:103C60008D838D819E819A83898389819A81019731
:103C7000F1F79A83898382E20E947F1D8CE00E9483
:103C80004F1D0E94C01C8CE08F878F850E947F1D76
:103C900081E00E947F1D86E00E947F1D2F960FB657
:103CA000F894DEBF0FBECDBFCF91DF910895DF93B3
:103CB000CF93CDB7DEB781E00E947F1DCF91DF911A
:103CC0000895DF93CF9300D000D0CDB7DEB79C83AB
:103CD0008B831A8219828B819C810097D9F00EC048
:103CE0008981282F30E08B819C81FC01E20FF31F3A
:103CF00080810E949F1D89818F5F89838981282F00
:103D000030E08B819C81FC01E20FF31F80818823CE
:103D100039F702C082E08A838A810F900F900F905A
:103D20000F90CF91DF9108950F931F93DF93CF935F
:103D3000CDB7DEB760970FB6F894DEBF0FBECDBF2C
:103D40006D877E878F87988B8AE0FE013396DF012F
:103D5000982F1D929A95E9F71A828D859E85AF85D9
:103D6000B8890097A105B10521F480E30E949F1D49
:103D70007BC08D859E85AF85B889BB230CF054C070
:103D80008DE20E949F1D8D859E85AF85B889B09577
:103D9000A095909581959F4FAF4FBF4F8D879E8780
:103DA000AF87B88B41C08A81082F10E08D859E8532
:103DB000AF85B8892AE030E040E050E0BC01CD0199
:103DC0000E943C21DC01CB01282FCE010396FC018F
:103DD000E00FF11F20838A81482F50E08A81282F2D
:103DE00030E0CE010396FC01E20FF31F8081282F03
:103DF000205DCE010396FC01E40FF51F20838D8525
:103E00009E85AF85B8892AE030E040E050E0BC01F3
:103E1000CD010E943C21DA01C9018D879E87AF87C1
:103E2000B88B8A818F5F8A838D859E85AF85B8899F
:103E3000181619061A061B060CF4B5CF8A81898359
:103E40008981882F90E09C0121503040CE0103965B
:103E5000FC01E20FF31F80810E949F1D8981815028
:103E600089838981882361F760960FB6F894DEBF55
:103E70000FBECDBFCF91DF911F910F910895DF93BA
:103E8000CF93CDB7DEB7A4970FB6F894DEBF0FBEC1
:103E9000CDBF9CA38BA380E2FE013396DF01982F58
:103EA0001D929A95E9F71A8280E690E00E94611EC1
:103EB0001A8223C08BA19CA181709070882359F035
:103EC0008A81282F30E0CE010396FC01E20FF31F18
:103ED00081E0808309C08A81282F30E0CE010396DB
:103EE000FC01E20FF31F10828BA19CA19595879591
:103EF0009CA38BA38A818F5F8A838A818031D0F2D1
:103F000080E061E00E946C2080E189838981882FB4
:103F100090E09C0121503040CE010396FC01E20F5D
:103F2000F31F8081882321F480E30E949F1D03C03A
:103F300081E30E949F1D8981815089838981882323
:103F400029F7A4960FB6F894DEBF0FBECDBFCF9170
:103F5000DF910895DF93CF93CDB7DEB7A5970FB666
:103F6000F894DEBF0FBECDBF6D8F7E8F8F8F98A36D
:103F7000CE0105969AA389A3EEE6F0E0FCA3EBA39D
:103F8000F0E1FDA3EBA1FCA100808BA19CA1019617
:103F90009CA38BA3E9A1FAA1008289A19AA1019611
:103FA0009AA389A39DA191509DA3EDA1EE2351F762
:103FB0001B8220C08D8D8F708A838D8D9E8DAF8DDD
:103FC000B8A1689413F8B595A79597958795169419
:103FD000D1F78D8F9E8FAF8FB8A38B81282F30E0C4
:103FE000CE014596FC01E20FF31F8A8180838B810D
:103FF0008F5F8B838B818830E8F283E690E00E94AC
:10400000611E87E08C831AC08C81282F332727FDFF
:104010003095CE014596FC01E20FF31F8081898324
:104020008981282F30E0CE010596FC01E20FF31FB5
:1040300080810E949F1D8C8181508C838C8188237C
:104040001CF7A5960FB6F894DEBF0FBECDBFCF917B
:10405000DF910895DF93CF93CDB7DEB727970FB6E3
:10406000F894DEBF0FBECDBF9C838B836D834E83E0
:104070002F838D81882F90E0880F991F880F991FBB
:10408000880F991F8A838A8180648A838A810E942B
:104090007F1D19820EC08981282F30E08B819C8181
:1040A000FC01E20FF31F80810E949F1D89818F5FB9
:1040B00089838981883078F38E816F810E946C209A
:1040C0008D810E949F1D27960FB6F894DEBF0FBE0C
:1040D000CDBFCF91DF910895DF93CF9300D000D073
:1040E000CDB7DEB78B836C831A828C81882319F459
:1040F0008B81898309C08C81813021F48B81805C24
:10410000898302C081E08A8389818068898389816B
:104110000E947F1D8A810F900F900F900F90CF917A
:10412000DF910895AF92BF92CF92DF92EF92FF920C
:104130000F931F93DF93CF93CDB7DEB764970FB67E
:10414000F894DEBF0FBECDBF6D837E838F839887CB
:1041500029873A874B875C87ED86FE860F87188B09
:10416000A98ABA8ACB8ADC8A19821A821B821C82AB
:1041700029893A894B895C898D859E85AF85B88967
:1041800079018A01E81AF90A0A0B1B0B29A13AA145
:104190004BA15CA18D819E81AF81B885281B390B15
:1041A0004A0B5B0BC801B7010E941D21DC01CB014A
:1041B00089839A83AB83BC8329853A854B855C854B
:1041C0008D819E81AF81B885281B390B4A0B5B0B13
:1041D00089819A81AB81BC81BC01CD010E943C21C7
:1041E000DA01C90189839A83AB83BC8329813A812F
:1041F0004B815C818D859E85AF85B889820F931F29
:10420000A41FB51F89839A83AB83BC8389819A815C
:10421000AB81BC81BC01CD0164960FB6F894DEBFC2
:104220000FBECDBFCF91DF911F910F91FF90EF9007
:10423000DF90CF90BF90AF900895629FD001739FA1
:10424000F001829FE00DF11D649FE00DF11D929F32
:10425000F00D839FF00D749FF00D659FF00D992771
:10426000729FB00DE11DF91F639FB00DE11DF91F95
:10427000BD01CF011124089597FB092E05260ED00C
:1042800057FD04D014D00AD0001C38F45095409546
:10429000309521953F4F4F4F5F4F0895F6F790951A
:1042A0008095709561957F4F8F4F9F4F0895A1E244
:1042B0001A2EAA1BBB1BFD010DC0AA1FBB1FEE1FA0
:1042C000FF1FA217B307E407F50720F0A21BB30BEB
:1042D000E40BF50B661F771F881F991F1A9469F767
:1042E00060957095809590959B01AC01BD01CF01C3
:1042F00008952F923F924F925F926F927F928F928A
:104300009F92AF92BF92CF92DF92EF92FF920F9364
:104310001F93CF93DF93CDB7DEB7CA1BDB0B0FB66E
:10432000F894DEBF0FBECDBF09942A88398848882B
:104330005F846E847D848C849B84AA84B984C884C1
:10434000DF80EE80FD800C811B81AA81B981CE0FB8
:10435000D11D0FB6F894DEBF0FBECDBFED0108959D
:04436000F894FFCFFF
:1043640030620030780000000000000000003031AE
:0E4374003233343536373839414243444546FA
:00000001FF
